{"abi":[{"type":"constructor","inputs":[{"name":"_prover","type":"address","internalType":"address"}],"stateMutability":"nonpayable"},{"type":"function","name":"claim","inputs":[{"name":"","type":"tuple","internalType":"struct Proof","components":[{"name":"seal","type":"tuple","internalType":"struct Seal","components":[{"name":"verifierSelector","type":"bytes4","internalType":"bytes4"},{"name":"seal","type":"bytes32[8]","internalType":"bytes32[8]"},{"name":"mode","type":"uint8","internalType":"enum ProofMode"}]},{"name":"callGuestId","type":"bytes32","internalType":"bytes32"},{"name":"length","type":"uint256","internalType":"uint256"},{"name":"callAssumptions","type":"tuple","internalType":"struct CallAssumptions","components":[{"name":"proverContractAddress","type":"address","internalType":"address"},{"name":"functionSelector","type":"bytes4","internalType":"bytes4"},{"name":"settleBlockNumber","type":"uint256","internalType":"uint256"},{"name":"settleBlockHash","type":"bytes32","internalType":"bytes32"}]}]},{"name":"claimer","type":"address","internalType":"address"},{"name":"average","type":"uint256","internalType":"uint256"}],"outputs":[],"stateMutability":"nonpayable"},{"type":"function","name":"claimed","inputs":[{"name":"","type":"address","internalType":"address"}],"outputs":[{"name":"","type":"bool","internalType":"bool"}],"stateMutability":"view"},{"type":"function","name":"prover","inputs":[],"outputs":[{"name":"","type":"address","internalType":"address"}],"stateMutability":"view"},{"type":"function","name":"reward","inputs":[],"outputs":[{"name":"","type":"address","internalType":"contract HodlerBadgeNFT"}],"stateMutability":"view"},{"type":"function","name":"shiftOffset","inputs":[{"name":"data","type":"bytes","internalType":"bytes"},{"name":"shiftBy","type":"uint256","internalType":"uint256"},{"name":"offsetPosition","type":"uint256","internalType":"uint256"}],"outputs":[{"name":"","type":"bytes","internalType":"bytes"}],"stateMutability":"pure"},{"type":"function","name":"verifier","inputs":[],"outputs":[{"name":"","type":"address","internalType":"contract IProofVerifier"}],"stateMutability":"view"},{"type":"error","name":"InvalidChainId","inputs":[]}],"bytecode":{"object":"0x608060405234801561001057600080fd5b50604051616ad6380380616ad683398101604081905261002f916101df565b6100376100b5565b600080546001600160a01b03199081166001600160a01b039384161790915560018054909116918316919091179055604051610072906101c5565b604051809103906000f08015801561008e573d6000803e3d6000fd5b50600380546001600160a01b0319166001600160a01b03929092169190911790555061020f565b60006100bf610129565b156100ca5750600090565b46617a6914806100dd57506100dd61017a565b15610110576040516100ee906101d2565b604051809103906000f08015801561010a573d6000803e3d6000fd5b50905090565b604051633d23e4d160e11b815260040160405180910390fd5b6000466001148061013a575046600a145b80610146575046612105145b8061015257504661a4b1145b8061015e57504661a4ba145b806101695750466089145b80610175575046610144145b905090565b60004662aa36a7148061018f57504662aa37dc145b8061019c57504662014a34145b806101a957504662013882145b806101b657504662066eee145b8061017557505061012c461490565b6111bb80610ec483390190565b614a578061207f83390190565b6000602082840312156101f157600080fd5b81516001600160a01b038116811461020857600080fd5b9392505050565b610ca68061021e6000396000f3fe608060405234801561001057600080fd5b50600436106100625760003560e01c8063228cb733146100675780632b7ac3f31461009757806332a8f30f146100aa57806348b03a46146100bd578063c884ef83146100d2578063e5e2277314610105575b600080fd5b60035461007a906001600160a01b031681565b6040516001600160a01b0390911681526020015b60405180910390f35b60005461007a906001600160a01b031681565b60015461007a906001600160a01b031681565b6100d06100cb366004610715565b610125565b005b6100f56100e036600461075d565b60026020526000908152604090205460ff1681565b604051901515815260200161008e565b610118610113366004610836565b610231565b60405161008e9190610900565b6001546001600160a01b03166304f1e97160e31b61014382826102ce565b6001600160a01b03841660009081526002602052604090205460ff16156101a35760405162461bcd60e51b815260206004820152600f60248201526e105b1c9958591e4818db185a5b5959608a1b60448201526064015b60405180910390fd5b62989680831061022a576001600160a01b0384811660008181526002602052604090819020805460ff1916600117905560035490516335313c2160e11b8152600481019290925290911690636a62784290602401600060405180830381600087803b15801561021157600080fd5b505af1158015610225573d6000803e3d6000fd5b505050505b5050505050565b60606000826020806102438180610949565b61024d9190610949565b6102579190610949565b6102619190610949565b905080855110156102ad5760405162461bcd60e51b8152602060048201526016602482015275115b98dbd919590819185d18481d1bdbc81cda1bdc9d60521b604482015260640161019a565b8481015160006102bd8683610962565b928701929092525093949350505050565b6000806102d9610349565b6000546040516312f238c760e21b81529294509092506001600160a01b031690634bc8e31c90610313908590859089908990600401610a31565b60006040518083038186803b15801561032b57600080fd5b505afa15801561033f573d6000803e3d6000fd5b5050505050505050565b61035161066c565b6000806103613660048184610a71565b81019061036e9190610b14565b9050600060208061037f8180610949565b6103899190610949565b6103939190610949565b602080806103a361010082610949565b6103ad9190610949565b6103b79190610949565b6103c19190610949565b6103cc906004610949565b6103d69190610949565b905060006020806103e78180610949565b6103f19190610949565b6103fb9190610949565b6020806104088180610949565b6104129190610949565b61041c9190610949565b6020808061042c61010082610949565b6104369190610949565b6104409190610949565b61044a9190610949565b6104549190610949565b84604001516104639190610962565b61046d9190610962565b9050600061047b8284610949565b9050600080366020808061049161010082610949565b61049b9190610949565b6104a59190610949565b6104af9190610949565b6104ba906004610949565b906020806104c88180610949565b6104d29190610949565b6104dc9190610949565b602080806104ec61010082610949565b6104f69190610949565b6105009190610949565b61050a9190610949565b610515906004610949565b61051f9190610949565b9261052c93929190610a71565b8080601f016020809104026020016040519081016040528093929190818152602001838380828437600092018290525093945061057192508591508790503684610a71565b8080601f01602080910402602001604051908101604052809392919081815260200183838082843760009201829052509394508592506105b391506106579050565b6040516020016105c39190610be9565b60408051601f19818403018152908290526105e392918590602001610bf8565b604051602081830303815290604052905060006002826040516106069190610c3b565b602060405180830381855afa158015610623573d6000803e3d6000fd5b5050506040513d601f19601f820116820180604052508101906106469190610c57565b979a97995096975050505050505050565b61065f61066c565b61066761066c565b919050565b604051806080016040528061067f6106b8565b81526000602080830182905260408084018390528051608081018252838152918201839052810182905260608181019290925291015290565b604080516060810190915260008152602081016106d36106df565b81526020016000905290565b6040518061010001604052806008906020820280368337509192915050565b80356001600160a01b038116811461066757600080fd5b600080600083850361024081121561072c57600080fd5b6102008082121561073c57600080fd5b85945061074a8187016106fe565b9350505061022084013590509250925092565b60006020828403121561076f57600080fd5b610778826106fe565b9392505050565b634e487b7160e01b600052604160045260246000fd5b6040516080810167ffffffffffffffff811182821017156107b8576107b861077f565b60405290565b6040516060810167ffffffffffffffff811182821017156107b8576107b861077f565b604051610100810167ffffffffffffffff811182821017156107b8576107b861077f565b604051601f8201601f1916810167ffffffffffffffff8111828210171561082e5761082e61077f565b604052919050565b60008060006060848603121561084b57600080fd5b833567ffffffffffffffff8082111561086357600080fd5b818601915086601f83011261087757600080fd5b813560208282111561088b5761088b61077f565b61089d601f8301601f19168201610805565b925081835288818386010111156108b357600080fd5b818185018285013760009183018101919091529097908601359650604090950135949350505050565b60005b838110156108f75781810151838201526020016108df565b50506000910152565b602081526000825180602084015261091f8160408501602087016108dc565b601f01601f19169190910160400192915050565b634e487b7160e01b600052601160045260246000fd5b8082018082111561095c5761095c610933565b92915050565b8181038181111561095c5761095c610933565b805180516001600160e01b031916835260208082015181850160005b60088110156109ae57825182529183019190830190600101610991565b5050505060400151600281106109d457634e487b7160e01b600052602160045260246000fd5b61012083015260208181015161014084015260408083015161016085015260609283015180516001600160a01b0316610180860152918201516001600160e01b0319166101a08501528101516101c084015201516101e090910152565b6102608101610a408287610975565b6102008201949094526001600160a01b03929092166102208301526001600160e01b03191661024090910152919050565b60008085851115610a8157600080fd5b83861115610a8e57600080fd5b5050820193919092039150565b80356001600160e01b03198116811461066757600080fd5b80356002811061066757600080fd5b600060808284031215610ad457600080fd5b610adc610795565b9050610ae7826106fe565b8152610af560208301610a9b565b6020820152604082013560408201526060820135606082015292915050565b6000818303610200811215610b2857600080fd5b610b30610795565b61014080831215610b4057600080fd5b610b486107be565b9250610b5385610a9b565b8352602086603f870112610b6657600080fd5b610b6e6107e1565b80610120880189811115610b8157600080fd5b602089015b81811015610b9d5780358452928401928401610b86565b50816020880152610bad81610ab3565b604088015250505050828252808501356020830152506101608401356040820152610bdc856101808601610ac2565b6060820152949350505050565b610200810161095c8284610975565b60008451610c0a8184602089016108dc565b845190830190610c1e8183602089016108dc565b8451910190610c318183602088016108dc565b0195945050505050565b60008251610c4d8184602087016108dc565b9190910192915050565b600060208284031215610c6957600080fd5b505191905056fea26469706673582212201824352eb9b42cc86b8687e61a864d868f5588ff809eac82d5049863769fc3e064736f6c634300081900336080604052600160065534801561001557600080fd5b506040518060400160405280600e81526020016d121bd91b195c90985919d953919560921b815250604051806040016040528060048152602001631213d11360e21b8152508160009081610069919061011f565b506001610076828261011f565b5050506101de565b634e487b7160e01b600052604160045260246000fd5b600181811c908216806100a857607f821691505b6020821081036100c857634e487b7160e01b600052602260045260246000fd5b50919050565b601f82111561011a576000816000526020600020601f850160051c810160208610156100f75750805b601f850160051c820191505b8181101561011657828155600101610103565b5050505b505050565b81516001600160401b038111156101385761013861007e565b61014c816101468454610094565b846100ce565b602080601f83116001811461018157600084156101695750858301515b600019600386901b1c1916600185901b178555610116565b600085815260208120601f198616915b828110156101b057888601518255948401946001909101908401610191565b50858210156101ce5787850151600019600388901b60f8161c191681555b5050505050600190811b01905550565b610fce806101ed6000396000f3fe608060405234801561001057600080fd5b50600436106100f45760003560e01c80636352211e11610097578063a22cb46511610066578063a22cb465146101f4578063b88d4fde14610207578063c87b56dd1461021a578063e985e9c51461022d57600080fd5b80636352211e146101b35780636a627842146101c657806370a08231146101d957806395d89b41146101ec57600080fd5b8063081812fc116100d3578063081812fc1461014d578063095ea7b31461017857806323b872dd1461018d57806342842e0e146101a057600080fd5b80629a9b7b146100f957806301ffc9a71461011557806306fdde0314610138575b600080fd5b61010260065481565b6040519081526020015b60405180910390f35b610128610123366004610c17565b610240565b604051901515815260200161010c565b610140610292565b60405161010c9190610c84565b61016061015b366004610c97565b610324565b6040516001600160a01b03909116815260200161010c565b61018b610186366004610ccc565b61034d565b005b61018b61019b366004610cf6565b61035c565b61018b6101ae366004610cf6565b6103ec565b6101606101c1366004610c97565b61040c565b61018b6101d4366004610d32565b610417565b6101026101e7366004610d32565b61043b565b610140610483565b61018b610202366004610d4d565b610492565b61018b610215366004610d9f565b61049d565b610140610228366004610c97565b6104b4565b61012861023b366004610e7b565b610529565b60006001600160e01b031982166380ac58cd60e01b148061027157506001600160e01b03198216635b5e139f60e01b145b8061028c57506301ffc9a760e01b6001600160e01b03198316145b92915050565b6060600080546102a190610eae565b80601f01602080910402602001604051908101604052809291908181526020018280546102cd90610eae565b801561031a5780601f106102ef5761010080835404028352916020019161031a565b820191906000526020600020905b8154815290600101906020018083116102fd57829003601f168201915b5050505050905090565b600061032f82610557565b506000828152600460205260409020546001600160a01b031661028c565b610358828233610590565b5050565b6001600160a01b03821661038b57604051633250574960e11b8152600060048201526024015b60405180910390fd5b600061039883833361059d565b9050836001600160a01b0316816001600160a01b0316146103e6576040516364283d7b60e01b81526001600160a01b0380861660048301526024820184905282166044820152606401610382565b50505050565b6104078383836040518060200160405280600081525061049d565b505050565b600061028c82610557565b61042381600654610696565b6006805490600061043383610ee8565b919050555050565b60006001600160a01b038216610467576040516322718ad960e21b815260006004820152602401610382565b506001600160a01b031660009081526003602052604090205490565b6060600180546102a190610eae565b6103583383836106fb565b6104a884848461035c565b6103e68484848461079a565b60606104bf82610557565b5060006104d760408051602081019091526000815290565b905060008151116104f75760405180602001604052806000815250610522565b80610501846108c3565b604051602001610512929190610f0f565b6040516020818303038152906040525b9392505050565b6001600160a01b03918216600090815260056020908152604080832093909416825291909152205460ff1690565b6000818152600260205260408120546001600160a01b03168061028c57604051637e27328960e01b815260048101849052602401610382565b6104078383836001610956565b6000828152600260205260408120546001600160a01b03908116908316156105ca576105ca818486610a5c565b6001600160a01b03811615610608576105e7600085600080610956565b6001600160a01b038116600090815260036020526040902080546000190190555b6001600160a01b03851615610637576001600160a01b0385166000908152600360205260409020805460010190555b60008481526002602052604080822080546001600160a01b0319166001600160a01b0389811691821790925591518793918516917fddf252ad1be2c89b69c2b068fc378daa952ba7f163c4a11628f55a4df523b3ef91a4949350505050565b6001600160a01b0382166106c057604051633250574960e11b815260006004820152602401610382565b60006106ce8383600061059d565b90506001600160a01b03811615610407576040516339e3563760e11b815260006004820152602401610382565b6001600160a01b03821661072d57604051630b61174360e31b81526001600160a01b0383166004820152602401610382565b6001600160a01b03838116600081815260056020908152604080832094871680845294825291829020805460ff191686151590811790915591519182527f17307eab39ab6107e8899845ad3d59bd9653f200f220920489ca2b5937696c31910160405180910390a3505050565b6001600160a01b0383163b156103e657604051630a85bd0160e11b81526001600160a01b0384169063150b7a02906107dc903390889087908790600401610f3e565b6020604051808303816000875af1925050508015610817575060408051601f3d908101601f1916820190925261081491810190610f7b565b60015b610880573d808015610845576040519150601f19603f3d011682016040523d82523d6000602084013e61084a565b606091505b50805160000361087857604051633250574960e11b81526001600160a01b0385166004820152602401610382565b805181602001fd5b6001600160e01b03198116630a85bd0160e11b146108bc57604051633250574960e11b81526001600160a01b0385166004820152602401610382565b5050505050565b606060006108d083610ac0565b600101905060008167ffffffffffffffff8111156108f0576108f0610d89565b6040519080825280601f01601f19166020018201604052801561091a576020820181803683370190505b5090508181016020015b600019016f181899199a1a9b1b9c1cb0b131b232b360811b600a86061a8153600a850494508461092457509392505050565b808061096a57506001600160a01b03821615155b15610a2c57600061097a84610557565b90506001600160a01b038316158015906109a65750826001600160a01b0316816001600160a01b031614155b80156109b957506109b78184610529565b155b156109e25760405163a9fbf51f60e01b81526001600160a01b0384166004820152602401610382565b8115610a2a5783856001600160a01b0316826001600160a01b03167f8c5be1e5ebec7d5bd14f71427d1e84f3dd0314c0f7b2291e5b200ac8c7c3b92560405160405180910390a45b505b5050600090815260046020526040902080546001600160a01b0319166001600160a01b0392909216919091179055565b610a67838383610b98565b610407576001600160a01b038316610a9557604051637e27328960e01b815260048101829052602401610382565b60405163177e802f60e01b81526001600160a01b038316600482015260248101829052604401610382565b60008072184f03e93ff9f4daa797ed6e38ed64bf6a1f0160401b8310610aff5772184f03e93ff9f4daa797ed6e38ed64bf6a1f0160401b830492506040015b6d04ee2d6d415b85acef81000000008310610b2b576d04ee2d6d415b85acef8100000000830492506020015b662386f26fc100008310610b4957662386f26fc10000830492506010015b6305f5e1008310610b61576305f5e100830492506008015b6127108310610b7557612710830492506004015b60648310610b87576064830492506002015b600a831061028c5760010192915050565b60006001600160a01b03831615801590610bf65750826001600160a01b0316846001600160a01b03161480610bd25750610bd28484610529565b80610bf657506000828152600460205260409020546001600160a01b038481169116145b949350505050565b6001600160e01b031981168114610c1457600080fd5b50565b600060208284031215610c2957600080fd5b813561052281610bfe565b60005b83811015610c4f578181015183820152602001610c37565b50506000910152565b60008151808452610c70816020860160208601610c34565b601f01601f19169290920160200192915050565b6020815260006105226020830184610c58565b600060208284031215610ca957600080fd5b5035919050565b80356001600160a01b0381168114610cc757600080fd5b919050565b60008060408385031215610cdf57600080fd5b610ce883610cb0565b946020939093013593505050565b600080600060608486031215610d0b57600080fd5b610d1484610cb0565b9250610d2260208501610cb0565b9150604084013590509250925092565b600060208284031215610d4457600080fd5b61052282610cb0565b60008060408385031215610d6057600080fd5b610d6983610cb0565b915060208301358015158114610d7e57600080fd5b809150509250929050565b634e487b7160e01b600052604160045260246000fd5b60008060008060808587031215610db557600080fd5b610dbe85610cb0565b9350610dcc60208601610cb0565b925060408501359150606085013567ffffffffffffffff80821115610df057600080fd5b818701915087601f830112610e0457600080fd5b813581811115610e1657610e16610d89565b604051601f8201601f19908116603f01168101908382118183101715610e3e57610e3e610d89565b816040528281528a6020848701011115610e5757600080fd5b82602086016020830137600060208483010152809550505050505092959194509250565b60008060408385031215610e8e57600080fd5b610e9783610cb0565b9150610ea560208401610cb0565b90509250929050565b600181811c90821680610ec257607f821691505b602082108103610ee257634e487b7160e01b600052602260045260246000fd5b50919050565b600060018201610f0857634e487b7160e01b600052601160045260246000fd5b5060010190565b60008351610f21818460208801610c34565b835190830190610f35818360208801610c34565b01949350505050565b6001600160a01b0385811682528416602082015260408101839052608060608201819052600090610f7190830184610c58565b9695505050505050565b600060208284031215610f8d57600080fd5b815161052281610bfe56fea2646970667358221220adf0e20cee8e3cdbf4ac55f371194257f3d4ba45cde62713fecc000b5919501964736f6c634300081900336080604052604051600e9060a0565b604051809103906000f0801580156029573d6000803e3d6000fd5b50600080546001600160a01b0319166001600160a01b039290921691909117905560405160549060ad565b604051809103906000f080158015606f573d6000803e3d6000fd5b50600180546001600160a01b0319166001600160a01b0392909216919091179055348015609b57600080fd5b5060ba565b6114808061060183390190565b612fd680611a8183390190565b610538806100c96000396000f3fe608060405234801561001057600080fd5b506004361061004c5760003560e01c80634bc8e31c146100515780634e8f939614610066578063a01b86d314610081578063bf877a43146100ac575b600080fd5b61006461005f366004610299565b6100bf565b005b61006e6101f2565b6040519081526020015b60405180910390f35b600054610094906001600160a01b031681565b6040516001600160a01b039091168152602001610078565b600154610094906001600160a01b031681565b60016100da6100d336879003870187610357565b6040015190565b60018111156100eb576100eb6102f2565b0361015b576000546040516312f238c760e21b81526001600160a01b0390911690634bc8e31c90610126908790879087908790600401610404565b60006040518083038186803b15801561013e57600080fd5b505afa158015610152573d6000803e3d6000fd5b505050506101ec565b600061016f6100d336879003870187610357565b6001811115610180576101806102f2565b036101ec576001546040516312f238c760e21b81526001600160a01b0390911690634bc8e31c906101bb908790879087908790600401610404565b60006040518083038186803b1580156101d357600080fd5b505afa1580156101e7573d6000803e3d6000fd5b505050505b50505050565b60015460408051632747c9cb60e11b815290516000926001600160a01b031691634e8f93969160048083019260209291908290030181865afa15801561023c573d6000803e3d6000fd5b505050506040513d601f19601f8201168201806040525081019061026091906104e9565b905090565b80356001600160a01b038116811461027c57600080fd5b919050565b80356001600160e01b03198116811461027c57600080fd5b6000806000808486036102608112156102b157600080fd5b610200808212156102c157600080fd5b86955085013593506102d890506102208501610265565b91506102e76102408601610281565b905092959194509250565b634e487b7160e01b600052602160045260246000fd5b634e487b7160e01b600052604160045260246000fd5b604051610100810167ffffffffffffffff8111828210171561034257610342610308565b60405290565b80356002811061027c57600080fd5b6000610140828403121561036a57600080fd5b6040516060810181811067ffffffffffffffff8211171561038d5761038d610308565b60405261039983610281565b8152602084603f8501126103ac57600080fd5b6103b461031e565b806101208601878111156103c757600080fd5b602087015b818110156103e357803584529284019284016103cc565b508160208601526103f381610348565b604086015250929695505050505050565b61026081016001600160e01b03198061041c88610281565b168352610100602088016020850137610120610439818901610348565b6002811061045757634e487b7160e01b600052602160045260246000fd5b90840152610140878101359084015261016080880135908401526101806001600160a01b03610487828a01610265565b16908401526101a08161049b898301610281565b1690840152506101c086810135908301526101e0808701359083015261020082018590526001600160a01b0384166102208301526001600160e01b0319831661024083015295945050505050565b6000602082840312156104fb57600080fd5b505191905056fea2646970667358221220a6a4832dc02b1b3784380bd35a3f4746573b4ebdd71d45ebc229b9060cb27b6164736f6c6343000819003360e060405234801561001057600080fd5b507fc0f59f76de44b1700c2de89e0eeffbbad523e049b6beef55441f371811f6276760c05261003d6100b4565b1561005b57604051633d23e4d160e11b815260040160405180910390fd5b60405163deafbeef60e01b9061007090610105565b6001600160e01b03199091168152602001604051809103906000f08015801561009d573d6000803e3d6000fd5b506001600160a01b031660a0526001608052610112565b600046600114806100c5575046600a145b806100d1575046612105145b806100dd57504661a4b1145b806100e957504661a4ba145b806100f45750466089145b80610100575046610144145b905090565b6109d780610aa983390190565b60805160a05160c0516109486101616000396000818160b70152818160ea015281816101b801526104a30152600081816061015261017a015260008181610111015261022e01526109486000f3fe608060405234801561001057600080fd5b50600436106100575760003560e01c806308c84e701461005c5780634bc8e31c146100a05780634e8f9396146100b55780638d98dea9146100e55780639a44ea841461010c575b600080fd5b6100837f000000000000000000000000000000000000000000000000000000000000000081565b6040516001600160a01b0390911681526020015b60405180910390f35b6100b36100ae3660046105cd565b610140565b005b7f00000000000000000000000000000000000000000000000000000000000000005b604051908152602001610097565b6100d77f000000000000000000000000000000000000000000000000000000000000000081565b6101337f000000000000000000000000000000000000000000000000000000000000000081565b604051610097919061063c565b61015761015236869003860186610785565b61022c565b61017061016936869003860186610785565b83836102bf565b6001600160a01b037f00000000000000000000000000000000000000000000000000000000000000001663ab750e756101b66101b136889003880188610825565b610512565b7f0000000000000000000000000000000000000000000000000000000000000000866040518463ffffffff1660e01b81526004016101f693929190610849565b60006040518083038186803b15801561020e57600080fd5b505afa158015610222573d6000803e3d6000fd5b5050505050505050565b7f0000000000000000000000000000000000000000000000000000000000000000600181111561025e5761025e610626565b815160400151600181111561027557610275610626565b146102bc5760405162461bcd60e51b8152602060048201526012602482015271496e76616c69642070726f6f66206d6f646560701b60448201526064015b60405180910390fd5b50565b816001600160a01b03168360600151600001516001600160a01b0316146103195760405162461bcd60e51b815260206004820152600e60248201526d24b73b30b634b210383937bb32b960911b60448201526064016102b3565b806001600160e01b0319168360600151602001516001600160e01b031916146103775760405162461bcd60e51b815260206004820152601060248201526f24b73b30b634b21039b2b632b1ba37b960811b60448201526064016102b3565b43836060015160400151106103de5760405162461bcd60e51b815260206004820152602760248201527f496e76616c696420626c6f636b206e756d6265723a20626c6f636b2066726f6d6044820152662066757475726560c81b60648201526084016102b3565b436101008460600151604001516103f591906108a5565b101561044f5760405162461bcd60e51b815260206004820152602360248201527f496e76616c696420626c6f636b206e756d6265723a20626c6f636b20746f6f206044820152621bdb1960ea1b60648201526084016102b3565b60608084015160408101519101519040146104a15760405162461bcd60e51b8152602060048201526012602482015271092dcecc2d8d2c840c4d8dec6d640d0c2e6d60731b60448201526064016102b3565b7f000000000000000000000000000000000000000000000000000000000000000083602001511461050d5760405162461bcd60e51b815260206004820152601660248201527510d85b1b11dd595cdd1259081b5a5cdb585d18da195960521b60448201526064016102b3565b505050565b606060018260400151600181111561052c5761052c610626565b0361056d5750602081810151519151604080516001600160e01b03199092169282019290925260248082019390935281518082039093018352604401905290565b81516020808401516040516105839392016108cc565b6040516020818303038152906040529050919050565b919050565b80356001600160a01b038116811461059957600080fd5b80356001600160e01b03198116811461059957600080fd5b6000806000808486036102608112156105e557600080fd5b610200808212156105f557600080fd5b869550850135935061060c9050610220850161059e565b915061061b61024086016105b5565b905092959194509250565b634e487b7160e01b600052602160045260246000fd5b602081016002831061065e57634e487b7160e01b600052602160045260246000fd5b91905290565b634e487b7160e01b600052604160045260246000fd5b604051610100810167ffffffffffffffff8111828210171561069e5761069e610664565b60405290565b6040516080810167ffffffffffffffff8111828210171561069e5761069e610664565b80356002811061059957600080fd5b600061014082840312156106e957600080fd5b6040516060810181811067ffffffffffffffff8211171561070c5761070c610664565b60405290508061071b836105b5565b8152602084603f85011261072e57600080fd5b61073661067a565b8061012086018781111561074957600080fd5b602087015b81811015610765578035845292840192840161074e565b50816020860152610775816106c7565b6040860152505050505092915050565b600081830361020081121561079957600080fd5b6107a16106a4565b6107ab85856106d6565b815261014084013560208201526101608401356040820152608061017f19830112156107d657600080fd5b6107de6106a4565b91506107ed610180850161059e565b82526107fc6101a085016105b5565b60208301526101c084013560408301526101e09093013560608083019190915283015250919050565b6000610140828403121561083857600080fd5b61084283836106d6565b9392505050565b606081526000845180606084015260005b81811015610877576020818801810151608086840101520161085a565b506000608082850101526080601f19601f830116840101915050836020830152826040830152949350505050565b808201808211156108c657634e487b7160e01b600052601160045260246000fd5b92915050565b6001600160e01b03198316815260006004820183825b60088110156109015781518352602092830192909101906001016108e2565b50505061010482019050939250505056fea2646970667358221220a5d63055c61f45ce8211fa6dda91513023bff77524e7d18a9875efa8edda756164736f6c6343000819003360a0604052348015600f57600080fd5b506040516109d73803806109d7833981016040819052602c91603d565b6001600160e01b031916608052606c565b600060208284031215604e57600080fd5b81516001600160e01b031981168114606557600080fd5b9392505050565b60805161093d61009a6000396000818160610152818160ee015281816101fa015261025f015261093d6000f3fe608060405234801561001057600080fd5b50600436106100575760003560e01c8063053c238d1461005c5780631599ead5146100a15780633a115bb1146100b657806366cf0e4b14610149578063ab750e751461015c575b600080fd5b6100837f000000000000000000000000000000000000000000000000000000000000000081565b6040516001600160e01b031990911681526020015b60405180910390f35b6100b46100af3660046106a5565b61016f565b005b61013c6100c43660046106e0565b604080518082019091526060815260006020820152604080518082019091526001600160e01b03197f000000000000000000000000000000000000000000000000000000000000000016606082015260648101839052806084810160408051601f198184030181529190528152602001929092525090565b604051610098919061071d565b61013c610157366004610763565b610189565b6100b461016a366004610785565b6101ba565b61018661017c8280610804565b83602001356101d7565b50565b6040805180820190915260608152600060208201526101b36100c46101ae85856102fc565b610463565b9392505050565b6101d184846101cc6101ae86866102fc565b6101d7565b50505050565b6101e5600460008486610852565b6101ee9161087c565b6001600160e01b0319167f00000000000000000000000000000000000000000000000000000000000000006001600160e01b0319161461029257610236600460008486610852565b61023f9161087c565b604051632e2ce35360e21b81526001600160e01b031991821660048201527f0000000000000000000000000000000000000000000000000000000000000000909116602482015260440160405180910390fd5b60408051602081018390520160408051601f1981840301815291905280516020909101206102c38360048187610852565b6040516102d19291906108ac565b6040518091039020146102f75760405163439cc0cd60e01b815260040160405180910390fd5b505050565b610304610660565b6040518060a0016040528084815260200160028060405161033c907072697363302e53797374656d537461746560781b815260110190565b602060405180830381855afa158015610359573d6000803e3d6000fd5b5050506040513d601f19601f8201168201806040525081019061037c91906108bc565b60408051602081019290925260009082018190526060820152600160f81b606482015260660160408051601f19818403018152908290526103bc916108d5565b602060405180830381855afa1580156103d9573d6000803e3d6000fd5b5050506040513d601f19601f820116820180604052508101906103fc91906108bc565b815260200160405180604001604052806000600281111561041f5761041f6108f1565b8152602001600060ff1681525081526020016000801b815260200161045a60405180604001604052808681526020016000801b8152506105c8565b90529392505050565b600060028060405161048d907172697363302e52656365697074436c61696d60701b815260120190565b602060405180830381855afa1580156104aa573d6000803e3d6000fd5b5050506040513d601f19601f820116820180604052508101906104cd91906108bc565b606084015184516020860151608087015160408801515160189060028111156104f8576104f86108f1565b60408a810151602090810151825191820199909952908101969096526060860194909452608085019290925260a084015263ffffffff909116901b60e01b6001600160e01b03191660c082015260f89190911b6001600160f81b03191660c4820152600160fa1b60c882015260ca015b60408051601f1981840301815290829052610582916108d5565b602060405180830381855afa15801561059f573d6000803e3d6000fd5b5050506040513d601f19601f820116820180604052508101906105c291906108bc565b92915050565b60006002806040516105ec906b1c9a5cd8cc0b93dd5d1c1d5d60a21b8152600c0190565b602060405180830381855afa158015610609573d6000803e3d6000fd5b5050506040513d601f19601f8201168201806040525081019061062c91906108bc565b83516020808601516040805192830194909452928101919091526060810191909152600160f91b6080820152608201610568565b6040805160a08101825260008082526020820152908101610691604080518082019091526000808252602082015290565b815260006020820181905260409091015290565b6000602082840312156106b757600080fd5b813567ffffffffffffffff8111156106ce57600080fd5b8201604081850312156101b357600080fd5b6000602082840312156106f257600080fd5b5035919050565b60005b838110156107145781810151838201526020016106fc565b50506000910152565b60208152600082516040602084015280518060608501526107458160808601602085016106f9565b60209490940151604084015250506080601f909201601f1916010190565b6000806040838503121561077657600080fd5b50508035926020909101359150565b6000806000806060858703121561079b57600080fd5b843567ffffffffffffffff808211156107b357600080fd5b818701915087601f8301126107c757600080fd5b8135818111156107d657600080fd5b8860208285010111156107e857600080fd5b6020928301999098509187013596604001359550909350505050565b6000808335601e1984360301811261081b57600080fd5b83018035915067ffffffffffffffff82111561083657600080fd5b60200191503681900382131561084b57600080fd5b9250929050565b6000808585111561086257600080fd5b8386111561086f57600080fd5b5050820193919092039150565b6001600160e01b031981358181169160048510156108a45780818660040360031b1b83161692505b505092915050565b8183823760009101908152919050565b6000602082840312156108ce57600080fd5b5051919050565b600082516108e78184602087016106f9565b9190910192915050565b634e487b7160e01b600052602160045260246000fdfea26469706673582212204ebb9f7f27c4242d4eb53edc672989ed6aee48a424fbb29108fb283dd34273a364736f6c6343000819003360e060405234801561001057600080fd5b507fc0f59f76de44b1700c2de89e0eeffbbad523e049b6beef55441f371811f6276760c05260006080526040517fa516a057c9fbf5629106300934d48e0e775d4230e41e503347cad96fcbde7e2e907f0eb6febcf06c5df079111be116f79bd8c7e85dc9448776ef9a59aaf2624ab5519061008a906100c3565b9182526020820152604001604051809103906000f0801580156100b1573d6000803e3d6000fd5b506001600160a01b031660a0526100d0565b61256f80610a6783390190565b60805160a05160c05161094861011f6000396000818160b70152818160ea015281816101b801526104a30152600081816061015261017a015260008181610111015261022e01526109486000f3fe608060405234801561001057600080fd5b50600436106100575760003560e01c806308c84e701461005c5780634bc8e31c146100a05780634e8f9396146100b55780638d98dea9146100e55780639a44ea841461010c575b600080fd5b6100837f000000000000000000000000000000000000000000000000000000000000000081565b6040516001600160a01b0390911681526020015b60405180910390f35b6100b36100ae3660046105cd565b610140565b005b7f00000000000000000000000000000000000000000000000000000000000000005b604051908152602001610097565b6100d77f000000000000000000000000000000000000000000000000000000000000000081565b6101337f000000000000000000000000000000000000000000000000000000000000000081565b604051610097919061063c565b61015761015236869003860186610785565b61022c565b61017061016936869003860186610785565b83836102bf565b6001600160a01b037f00000000000000000000000000000000000000000000000000000000000000001663ab750e756101b66101b136889003880188610825565b610512565b7f0000000000000000000000000000000000000000000000000000000000000000866040518463ffffffff1660e01b81526004016101f693929190610849565b60006040518083038186803b15801561020e57600080fd5b505afa158015610222573d6000803e3d6000fd5b5050505050505050565b7f0000000000000000000000000000000000000000000000000000000000000000600181111561025e5761025e610626565b815160400151600181111561027557610275610626565b146102bc5760405162461bcd60e51b8152602060048201526012602482015271496e76616c69642070726f6f66206d6f646560701b60448201526064015b60405180910390fd5b50565b816001600160a01b03168360600151600001516001600160a01b0316146103195760405162461bcd60e51b815260206004820152600e60248201526d24b73b30b634b210383937bb32b960911b60448201526064016102b3565b806001600160e01b0319168360600151602001516001600160e01b031916146103775760405162461bcd60e51b815260206004820152601060248201526f24b73b30b634b21039b2b632b1ba37b960811b60448201526064016102b3565b43836060015160400151106103de5760405162461bcd60e51b815260206004820152602760248201527f496e76616c696420626c6f636b206e756d6265723a20626c6f636b2066726f6d6044820152662066757475726560c81b60648201526084016102b3565b436101008460600151604001516103f591906108a5565b101561044f5760405162461bcd60e51b815260206004820152602360248201527f496e76616c696420626c6f636b206e756d6265723a20626c6f636b20746f6f206044820152621bdb1960ea1b60648201526084016102b3565b60608084015160408101519101519040146104a15760405162461bcd60e51b8152602060048201526012602482015271092dcecc2d8d2c840c4d8dec6d640d0c2e6d60731b60448201526064016102b3565b7f000000000000000000000000000000000000000000000000000000000000000083602001511461050d5760405162461bcd60e51b815260206004820152601660248201527510d85b1b11dd595cdd1259081b5a5cdb585d18da195960521b60448201526064016102b3565b505050565b606060018260400151600181111561052c5761052c610626565b0361056d5750602081810151519151604080516001600160e01b03199092169282019290925260248082019390935281518082039093018352604401905290565b81516020808401516040516105839392016108cc565b6040516020818303038152906040529050919050565b919050565b80356001600160a01b038116811461059957600080fd5b80356001600160e01b03198116811461059957600080fd5b6000806000808486036102608112156105e557600080fd5b610200808212156105f557600080fd5b869550850135935061060c9050610220850161059e565b915061061b61024086016105b5565b905092959194509250565b634e487b7160e01b600052602160045260246000fd5b602081016002831061065e57634e487b7160e01b600052602160045260246000fd5b91905290565b634e487b7160e01b600052604160045260246000fd5b604051610100810167ffffffffffffffff8111828210171561069e5761069e610664565b60405290565b6040516080810167ffffffffffffffff8111828210171561069e5761069e610664565b80356002811061059957600080fd5b600061014082840312156106e957600080fd5b6040516060810181811067ffffffffffffffff8211171561070c5761070c610664565b60405290508061071b836105b5565b8152602084603f85011261072e57600080fd5b61073661067a565b8061012086018781111561074957600080fd5b602087015b81811015610765578035845292840192840161074e565b50816020860152610775816106c7565b6040860152505050505092915050565b600081830361020081121561079957600080fd5b6107a16106a4565b6107ab85856106d6565b815261014084013560208201526101608401356040820152608061017f19830112156107d657600080fd5b6107de6106a4565b91506107ed610180850161059e565b82526107fc6101a085016105b5565b60208301526101c084013560408301526101e09093013560608083019190915283015250919050565b6000610140828403121561083857600080fd5b61084283836106d6565b9392505050565b606081526000845180606084015260005b81811015610877576020818801810151608086840101520161085a565b506000608082850101526080601f19601f830116840101915050836020830152826040830152949350505050565b808201808211156108c657634e487b7160e01b600052601160045260246000fd5b92915050565b6001600160e01b03198316815260006004820183825b60088110156109015781518352602092830192909101906001016108e2565b50505061010482019050939250505056fea26469706673582212208d25cce964931cbb32a160762b6faf1bdd9173a87c03af57c290f7e33ac3acd964736f6c6343000819003361010060405234801561001157600080fd5b5060405161256f38038061256f83398101604081905261003091611074565b610039826102bf565b6001600160801b031990811660a0521660805260c08190526040517f72697363302e47726f74683136526563656970745665726966696572506172618152656d657465727360d01b60208201526002908190602601602060405180830381855afa1580156100ab573d6000803e3d6000fd5b5050506040513d601f19601f820116820180604052508101906100ce9190611098565b8361021f8460008190506008817eff00ff00ff00ff00ff00ff00ff00ff00ff00ff00ff00ff00ff00ff00ff00ff16901b6008827fff00ff00ff00ff00ff00ff00ff00ff00ff00ff00ff00ff00ff00ff00ff00ff0016901c1790506010817dffff0000ffff0000ffff0000ffff0000ffff0000ffff0000ffff0000ffff16901b6010827fffff0000ffff0000ffff0000ffff0000ffff0000ffff0000ffff0000ffff000016901c1790506020817bffffffff00000000ffffffff00000000ffffffff00000000ffffffff16901b6020827fffffffff00000000ffffffff00000000ffffffff00000000ffffffff0000000016901c17905060408177ffffffffffffffff0000000000000000ffffffffffffffff16901b6040827fffffffffffffffff0000000000000000ffffffffffffffff000000000000000016901c179050608081901b608082901c179050919050565b61022761042d565b60408051602081019590955284019290925260608301526080820152600360f81b60a082015260a20160408051601f198184030181529082905261026a916110e1565b602060405180830381855afa158015610287573d6000803e3d6000fd5b5050506040513d601f19601f820116820180604052508101906102aa9190611098565b6001600160e01b03191660e052506111869050565b600080806104138460008190506008817eff00ff00ff00ff00ff00ff00ff00ff00ff00ff00ff00ff00ff00ff00ff00ff16901b6008827fff00ff00ff00ff00ff00ff00ff00ff00ff00ff00ff00ff00ff00ff00ff00ff0016901c1790506010817dffff0000ffff0000ffff0000ffff0000ffff0000ffff0000ffff0000ffff16901b6010827fffff0000ffff0000ffff0000ffff0000ffff0000ffff0000ffff0000ffff000016901c1790506020817bffffffff00000000ffffffff00000000ffffffff00000000ffffffff16901b6020827fffffffff00000000ffffffff00000000ffffffff00000000ffffffff0000000016901c17905060408177ffffffffffffffff0000000000000000ffffffffffffffff16901b6040827fffffffffffffffff0000000000000000ffffffffffffffff000000000000000016901c179050608081901b608082901c179050919050565b608081901b956001600160801b0319909116945092505050565b60408051600680825260e082019092526000918291906020820160c08036833701905050905060027f12ac9a25dcd5e1a832a9061a082c15dd1d61aa9c4d553505739d0f5d65dc3be47f025aa744581ebe7ad91731911c898569106ff5a2d30f3eee2b23c60ee980acd46040516020016104b1929190918252602082015260400190565b60408051601f19818403018152908290526104cb916110e1565b602060405180830381855afa1580156104e8573d6000803e3d6000fd5b5050506040513d601f19601f8201168201806040525081019061050b9190611098565b8160008151811061051e5761051e6110f4565b60200260200101818152505060027f0707b920bc978c02f292fae2036e057be54294114ccc3c8769d883f688a1423f7f2e32a094b7589554f7bc357bf63481acd2d55555c203383782a4650787ff6642604051602001610588929190918252602082015260400190565b60408051601f19818403018152908290526105a2916110e1565b602060405180830381855afa1580156105bf573d6000803e3d6000fd5b5050506040513d601f19601f820116820180604052508101906105e29190611098565b816001815181106105f5576105f56110f4565b60200260200101818152505060027f0bca36e2cbe6394b3e249751853f961511011c7148e336f4fd974644850fc3477f2ede7c9acf48cf3a3729fa3d68714e2a8435d4fa6db8f7f409c153b1fcdf9b8b60405160200161065f929190918252602082015260400190565b60408051601f1981840301815290829052610679916110e1565b602060405180830381855afa158015610696573d6000803e3d6000fd5b5050506040513d601f19601f820116820180604052508101906106b99190611098565b816002815181106106cc576106cc6110f4565b60200260200101818152505060027f1b8af999dbfbb3927c091cc2aaf201e488cbacc3e2c6b6fb5a25f9112e04f2a77f2b91a26aa92e1b6f5722949f192a81c850d586d81a60157f3e9cf04f679cccd6604051602001610736929190918252602082015260400190565b60408051601f1981840301815290829052610750916110e1565b602060405180830381855afa15801561076d573d6000803e3d6000fd5b5050506040513d601f19601f820116820180604052508101906107909190611098565b816003815181106107a3576107a36110f4565b60200260200101818152505060027f2b5f494ed674235b8ac1750bdfd5a7615f002d4a1dcefeddd06eda5a076ccd0d7f2fe520ad2020aab9cbba817fcbb9a863b8a76ff88f14f912c5e71665b2ad5e8260405160200161080d929190918252602082015260400190565b60408051601f1981840301815290829052610827916110e1565b602060405180830381855afa158015610844573d6000803e3d6000fd5b5050506040513d601f19601f820116820180604052508101906108679190611098565b8160048151811061087a5761087a6110f4565b60200260200101818152505060027f0f1c3c0d5d9da0fa03666843cde4e82e869ba5252fce3c25d5940320b1c4d4937f214bfcff74f425f6fe8c0d07b307482d8bc8bb2f3608f68287aa01bd0b69e8096040516020016108e4929190918252602082015260400190565b60408051601f19818403018152908290526108fe916110e1565b602060405180830381855afa15801561091b573d6000803e3d6000fd5b5050506040513d601f19601f8201168201806040525081019061093e9190611098565b81600581518110610951576109516110f4565b602002602001018181525050600280604051610990907f72697363305f67726f746831362e566572696679696e674b65790000000000008152601a0190565b602060405180830381855afa1580156109ad573d6000803e3d6000fd5b5050506040513d601f19601f820116820180604052508101906109d09190611098565b60027f2d4d9aa7e302d9df41749d5507949d05dbea33fbb16c643b22f599a2be6df2e27f14bedd503c37ceb061d8ec60209fe345ce89830a19230301f076caff004d1926604051602001610a2e929190918252602082015260400190565b60408051601f1981840301815290829052610a48916110e1565b602060405180830381855afa158015610a65573d6000803e3d6000fd5b5050506040513d601f19601f82011682018060405250810190610a889190611098565b604080517f0967032fcbf776d1afc985f88877f182d38480a653f2decaa9794cbc3bf3060c60208201527f0e187847ad4c798374d0d6732bf501847dd68bc0e071241e0213bc7fc13db7ab918101919091527f304cfbd1e08a704a99f5e847d93f8c3caafddec46b7a0d379da69a4d112346a760608201527f1739c1b1a457a8c7313123d24d2f9192f896b7c63eea05a9d57f06547ad0cec8608082015260029060a00160408051601f1981840301815290829052610b46916110e1565b602060405180830381855afa158015610b63573d6000803e3d6000fd5b5050506040513d601f19601f82011682018060405250810190610b869190611098565b604080517f198e9393920d483a7260bfb731fb5d25f1aa493335a9e71297e485b7aef312c260208201527f1800deef121f1e76426a00665e5c4479674322d4f75edadd46debd5cd992f6ed918101919091527f090689d0585ff075ec9e99ad690c3395bc4b313370b38ef355acdadcd122975b60608201527f12c85ea5db8c6deb4aab71808dcb408fe3d1e7690c43d37b4ce6cc0166fa7daa608082015260029060a00160408051601f1981840301815290829052610c44916110e1565b602060405180830381855afa158015610c61573d6000803e3d6000fd5b5050506040513d601f19601f82011682018060405250810190610c849190611098565b604080517f03b03cd5effa95ac9bee94f1f5ef907157bda4812ccf0b4c91f42bb629f83a1c60208201527f1aa085ff28179a12d922dba0547057ccaae94b9d69cfaa4e60401fea7f3e0333918101919091527f110c10134f200b19f6490846d518c9aea868366efb7228ca5c91d2940d03076260608201527f1e60f31fcbf757e837e867178318832d0b2d74d59e2fea1c7142df187d3fc6d3608082015260029060a00160408051601f1981840301815290829052610d42916110e1565b602060405180830381855afa158015610d5f573d6000803e3d6000fd5b5050506040513d601f19601f82011682018060405250810190610d829190611098565b610dfd6002604051610db7907f72697363305f67726f746831362e566572696679696e674b65792e49430000008152601d0190565b602060405180830381855afa158015610dd4573d6000803e3d6000fd5b5050506040513d601f19601f82011682018060405250810190610df79190611098565b88610e93565b6040805160208101979097528601949094526060850192909252608084015260a083015260c0820152600560f81b60e082015260e20160408051601f1981840301815290829052610e4d916110e1565b602060405180830381855afa158015610e6a573d6000803e3d6000fd5b5050506040513d601f19601f82011682018060405250810190610e8d9190611098565b91505090565b600080805b8351811015610eed57610ee385858360018851610eb5919061110a565b610ebf919061110a565b81518110610ecf57610ecf6110f4565b602002602001015184610ef760201b60201c565b9150600101610e98565b5090505b92915050565b604080516002808252606082018352600092839291906020830190803683370190505090508381600081518110610f3057610f306110f4565b6020026020010181815250508281600181518110610f5057610f506110f4565b6020908102919091010152610f658582610f6e565b95945050505050565b60408051600080825260208201909252610f89848483610f91565b949350505050565b600080610fa4845161103d60201b60201c565b9050600060088261ffff16901c60088361ffff16901b1760f01b9050600286868684604051602001610fd9949392919061112b565b60408051601f1981840301815290829052610ff3916110e1565b602060405180830381855afa158015611010573d6000803e3d6000fd5b5050506040513d601f19601f820116820180604052508101906110339190611098565b9695505050505050565b600061ffff821115611070576040516306dfcc6560e41b8152601060048201526024810183905260440160405180910390fd5b5090565b6000806040838503121561108757600080fd5b505080516020909101519092909150565b6000602082840312156110aa57600080fd5b5051919050565b6000815160005b818110156110d257602081850181015186830152016110b8565b50600093019283525090919050565b60006110ed82846110b1565b9392505050565b634e487b7160e01b600052603260045260246000fd5b81810381811115610ef157634e487b7160e01b600052601160045260246000fd5b8481526000602080830186516020880160005b8281101561115a5781518452928401929084019060010161113e565b50505061116781876110b1565b6001600160f01b03199590951685525050600290920195945050505050565b60805160a05160c05160e05161138f6111e0600039600081816087015281816107df015261084401526000818160e1015261091d01526000818161013901526108e401526000818161017901526108bc015261138f6000f3fe608060405234801561001057600080fd5b506004361061007d5760003560e01c806334baeab91161005b57806334baeab9146101115780638989fa2e146101345780639181e4b114610174578063ab750e751461019b57600080fd5b8063053c238d146100825780631599ead5146100c7578063258038e2146100dc575b600080fd5b6100a97f000000000000000000000000000000000000000000000000000000000000000081565b6040516001600160e01b031990911681526020015b60405180910390f35b6100da6100d5366004610ee3565b6101ae565b005b6101037f000000000000000000000000000000000000000000000000000000000000000081565b6040519081526020016100be565b61012461011f366004610f36565b6101c8565b60405190151581526020016100be565b61015b7f000000000000000000000000000000000000000000000000000000000000000081565b6040516001600160801b031990911681526020016100be565b61015b7f000000000000000000000000000000000000000000000000000000000000000081565b6100da6101a9366004610f9c565b61079a565b6101c56101bb828061101b565b83602001356107bc565b50565b6000610728565b7f30644e72e131a029b85045b68181585d2833e84879b9709143e1f593f000000181106101c5576000805260206000f35b600060405183815284602082015285604082015260408160608360076107d05a03fa915081610233576000805260206000f35b825160408201526020830151606082015260408360808360066107d05a03fa91505080610264576000805260206000f35b5050505050565b7f12ac9a25dcd5e1a832a9061a082c15dd1d61aa9c4d553505739d0f5d65dc3be485527f025aa744581ebe7ad91731911c898569106ff5a2d30f3eee2b23c60ee980acd460208601526000608086018661030887357f2e32a094b7589554f7bc357bf63481acd2d55555c203383782a4650787ff66427f0707b920bc978c02f292fae2036e057be54294114ccc3c8769d883f688a1423f84610200565b61035860208801357f2ede7c9acf48cf3a3729fa3d68714e2a8435d4fa6db8f7f409c153b1fcdf9b8b7f0bca36e2cbe6394b3e249751853f961511011c7148e336f4fd974644850fc34784610200565b6103a860408801357f2b91a26aa92e1b6f5722949f192a81c850d586d81a60157f3e9cf04f679cccd67f1b8af999dbfbb3927c091cc2aaf201e488cbacc3e2c6b6fb5a25f9112e04f2a784610200565b6103f860608801357f2fe520ad2020aab9cbba817fcbb9a863b8a76ff88f14f912c5e71665b2ad5e827f2b5f494ed674235b8ac1750bdfd5a7615f002d4a1dcefeddd06eda5a076ccd0d84610200565b61044860808801357f214bfcff74f425f6fe8c0d07b307482d8bc8bb2f3608f68287aa01bd0b69e8097f0f1c3c0d5d9da0fa03666843cde4e82e869ba5252fce3c25d5940320b1c4d49384610200565b50823581527f30644e72e131a029b85045b68181585d97816a916871ca8d3c208c16d87cfd4760208401357f30644e72e131a029b85045b68181585d97816a916871ca8d3c208c16d87cfd4703066020820152833560408201526020840135606082015260408401356080820152606084013560a08201527f2d4d9aa7e302d9df41749d5507949d05dbea33fbb16c643b22f599a2be6df2e260c08201527f14bedd503c37ceb061d8ec60209fe345ce89830a19230301f076caff004d192660e08201527f0967032fcbf776d1afc985f88877f182d38480a653f2decaa9794cbc3bf3060c6101008201527f0e187847ad4c798374d0d6732bf501847dd68bc0e071241e0213bc7fc13db7ab6101208201527f304cfbd1e08a704a99f5e847d93f8c3caafddec46b7a0d379da69a4d112346a76101408201527f1739c1b1a457a8c7313123d24d2f9192f896b7c63eea05a9d57f06547ad0cec8610160820152600087015161018082015260206000018701516101a08201527f198e9393920d483a7260bfb731fb5d25f1aa493335a9e71297e485b7aef312c26101c08201527f1800deef121f1e76426a00665e5c4479674322d4f75edadd46debd5cd992f6ed6101e08201527f090689d0585ff075ec9e99ad690c3395bc4b313370b38ef355acdadcd122975b6102008201527f12c85ea5db8c6deb4aab71808dcb408fe3d1e7690c43d37b4ce6cc0166fa7daa610220820152843561024082015260208501356102608201527f03b03cd5effa95ac9bee94f1f5ef907157bda4812ccf0b4c91f42bb629f83a1c6102808201527f1aa085ff28179a12d922dba0547057ccaae94b9d69cfaa4e60401fea7f3e03336102a08201527f110c10134f200b19f6490846d518c9aea868366efb7228ca5c91d2940d0307626102c08201527f1e60f31fcbf757e837e867178318832d0b2d74d59e2fea1c7142df187d3fc6d36102e08201526020816103008360086107d05a03fa9051169695505050505050565b604051610380810160405261074060008401356101cf565b61074d60208401356101cf565b61075a60408401356101cf565b61076760608401356101cf565b61077460808401356101cf565b61078160a08401356101cf565b61078e818486888a61026b565b90508060005260206000f35b6107b684846107b16107ac86866109d7565b610b40565b6107bc565b50505050565b6107ca600460008486611069565b6107d391611093565b6001600160e01b0319167f00000000000000000000000000000000000000000000000000000000000000006001600160e01b031916146108775761081b600460008486611069565b61082491611093565b604051632e2ce35360e21b81526001600160e01b031991821660048201527f0000000000000000000000000000000000000000000000000000000000000000909116602482015260440160405180910390fd5b60008061088383610c9f565b909250905060006108978560048189611069565b8101906108a49190611175565b8051602080830151604080850151815160a0810183527f0000000000000000000000000000000000000000000000000000000000000000608090811c82527f0000000000000000000000000000000000000000000000000000000000000000811c9582019590955289851c8184015288851c60608201527f00000000000000000000000000000000000000000000000000000000000000009481019490945290516334baeab960e01b815294955060009430946334baeab99461096d9491939192600401611232565b602060405180830381865afa15801561098a573d6000803e3d6000fd5b505050506040513d601f19601f820116820180604052508101906109ae91906112d9565b9050806109ce5760405163439cc0cd60e01b815260040160405180910390fd5b50505050505050565b6109df610e9e565b6040518060a00160405280848152602001600280604051610a17907072697363302e53797374656d537461746560781b815260110190565b602060405180830381855afa158015610a34573d6000803e3d6000fd5b5050506040513d601f19601f82011682018060405250810190610a5791906112fb565b60408051602081019290925260009082018190526060820152600160f81b606482015260660160408051601f1981840301815290829052610a9791611314565b602060405180830381855afa158015610ab4573d6000803e3d6000fd5b5050506040513d601f19601f82011682018060405250810190610ad791906112fb565b8152602001604051806040016040528060006002811115610afa57610afa611343565b8152602001600060ff1681525081526020016000801b8152602001610b3560405180604001604052808681526020016000801b815250610e06565b905290505b92915050565b6000600280604051610b6a907172697363302e52656365697074436c61696d60701b815260120190565b602060405180830381855afa158015610b87573d6000803e3d6000fd5b5050506040513d601f19601f82011682018060405250810190610baa91906112fb565b60608401518451602086015160808701516040880151516018906002811115610bd557610bd5611343565b60408a810151602090810151825191820199909952908101969096526060860194909452608085019290925260a084015263ffffffff909116901b60e01b6001600160e01b03191660c082015260f89190911b6001600160f81b03191660c4820152600160fa1b60c882015260ca015b60408051601f1981840301815290829052610c5f91611314565b602060405180830381855afa158015610c7c573d6000803e3d6000fd5b5050506040513d601f19601f82011682018060405250810190610b3a91906112fb565b60008080610dec8460008190506008817eff00ff00ff00ff00ff00ff00ff00ff00ff00ff00ff00ff00ff00ff00ff00ff16901b6008827fff00ff00ff00ff00ff00ff00ff00ff00ff00ff00ff00ff00ff00ff00ff00ff0016901c1790506010817dffff0000ffff0000ffff0000ffff0000ffff0000ffff0000ffff0000ffff16901b6010827fffff0000ffff0000ffff0000ffff0000ffff0000ffff0000ffff0000ffff000016901c1790506020817bffffffff00000000ffffffff00000000ffffffff00000000ffffffff16901b6020827fffffffff00000000ffffffff00000000ffffffff00000000ffffffff0000000016901c17905060408177ffffffffffffffff0000000000000000ffffffffffffffff16901b60408277ffffffffffffffff0000000000000000ffffffffffffffff1916901c179050608081901b608082901c179050919050565b608081901b956001600160801b0319909116945092505050565b6000600280604051610e2a906b1c9a5cd8cc0b93dd5d1c1d5d60a21b8152600c0190565b602060405180830381855afa158015610e47573d6000803e3d6000fd5b5050506040513d601f19601f82011682018060405250810190610e6a91906112fb565b83516020808601516040805192830194909452928101919091526060810191909152600160f91b6080820152608201610c45565b6040805160a08101825260008082526020820152908101610ecf604080518082019091526000808252602082015290565b815260006020820181905260409091015290565b600060208284031215610ef557600080fd5b813567ffffffffffffffff811115610f0c57600080fd5b820160408185031215610f1e57600080fd5b9392505050565b8060408101831015610b3a57600080fd5b6000806000806101a0808688031215610f4e57600080fd5b610f588787610f25565b945060c0860187811115610f6b57600080fd5b604087019450610f7b8882610f25565b935050868187011115610f8d57600080fd5b50929591945092610100019150565b60008060008060608587031215610fb257600080fd5b843567ffffffffffffffff80821115610fca57600080fd5b818701915087601f830112610fde57600080fd5b813581811115610fed57600080fd5b886020828501011115610fff57600080fd5b6020928301999098509187013596604001359550909350505050565b6000808335601e1984360301811261103257600080fd5b83018035915067ffffffffffffffff82111561104d57600080fd5b60200191503681900382131561106257600080fd5b9250929050565b6000808585111561107957600080fd5b8386111561108657600080fd5b5050820193919092039150565b6001600160e01b031981358181169160048510156110bb5780818660040360031b1b83161692505b505092915050565b634e487b7160e01b600052604160045260246000fd5b6040516060810167ffffffffffffffff811182821017156110fc576110fc6110c3565b60405290565b6040805190810167ffffffffffffffff811182821017156110fc576110fc6110c3565b600082601f83011261113657600080fd5b61113e611102565b80604084018581111561115057600080fd5b845b8181101561116a578035845260209384019301611152565b509095945050505050565b6000610100828403121561118857600080fd5b6111906110d9565b61119a8484611125565b8152604084605f8501126111ad57600080fd5b6111b5611102565b8060c08601878111156111c757600080fd5b604087015b818110156111ed576111de8982611125565b845260209093019284016111cc565b508160208601526111fe8882611125565b604086015250929695505050505050565b8060005b60028110156107b6578151845260209384019390910190600101611213565b6101a08101611241828761120f565b60408083018660005b60028082106112595750611294565b82518460005b8381101561127d57825182526020928301929091019060010161125f565b50505092840192506020919091019060010161124a565b505050506112a560c083018561120f565b61010082018360005b60058110156112cd5781518352602092830192909101906001016112ae565b50505095945050505050565b6000602082840312156112eb57600080fd5b81518015158114610f1e57600080fd5b60006020828403121561130d57600080fd5b5051919050565b6000825160005b81811015611335576020818601810151858301520161131b565b506000920191825250919050565b634e487b7160e01b600052602160045260246000fdfea26469706673582212207bddfc907d5ef91d122d4d7750a656f50fd3536f8929cabb13c0021d85be2e3064736f6c63430008190033","linkReferences":{}},"methodIdentifiers":{"claim(((bytes4,bytes32[8],uint8),bytes32,uint256,(address,bytes4,uint256,bytes32)),address,uint256)":"48b03a46","claimed(address)":"c884ef83","prover()":"32a8f30f","reward()":"228cb733","shiftOffset(bytes,uint256,uint256)":"e5e22773","verifier()":"2b7ac3f3"},"id":60}