{"abi":[{"type":"constructor","inputs":[{"name":"_token","type":"address","internalType":"contract IERC20"},{"name":"_startBlockNo","type":"uint256","internalType":"uint256"},{"name":"_endingBlockNo","type":"uint256","internalType":"uint256"},{"name":"_step","type":"uint256","internalType":"uint256"}],"stateMutability":"nonpayable"},{"type":"function","name":"averageBalanceOf","inputs":[{"name":"_owner","type":"address","internalType":"address"}],"outputs":[{"name":"","type":"tuple","internalType":"struct Proof","components":[{"name":"seal","type":"tuple","internalType":"struct Seal","components":[{"name":"verifierSelector","type":"bytes4","internalType":"bytes4"},{"name":"seal","type":"bytes32[8]","internalType":"bytes32[8]"},{"name":"mode","type":"uint8","internalType":"enum ProofMode"}]},{"name":"callGuestId","type":"bytes32","internalType":"bytes32"},{"name":"length","type":"uint256","internalType":"uint256"},{"name":"callAssumptions","type":"tuple","internalType":"struct CallAssumptions","components":[{"name":"proverContractAddress","type":"address","internalType":"address"},{"name":"functionSelector","type":"bytes4","internalType":"bytes4"},{"name":"settleBlockNumber","type":"uint256","internalType":"uint256"},{"name":"settleBlockHash","type":"bytes32","internalType":"bytes32"}]}]},{"name":"","type":"address","internalType":"address"},{"name":"","type":"uint256","internalType":"uint256"}],"stateMutability":"nonpayable"},{"type":"function","name":"proof","inputs":[],"outputs":[{"name":"","type":"tuple","internalType":"struct Proof","components":[{"name":"seal","type":"tuple","internalType":"struct Seal","components":[{"name":"verifierSelector","type":"bytes4","internalType":"bytes4"},{"name":"seal","type":"bytes32[8]","internalType":"bytes32[8]"},{"name":"mode","type":"uint8","internalType":"enum ProofMode"}]},{"name":"callGuestId","type":"bytes32","internalType":"bytes32"},{"name":"length","type":"uint256","internalType":"uint256"},{"name":"callAssumptions","type":"tuple","internalType":"struct CallAssumptions","components":[{"name":"proverContractAddress","type":"address","internalType":"address"},{"name":"functionSelector","type":"bytes4","internalType":"bytes4"},{"name":"settleBlockNumber","type":"uint256","internalType":"uint256"},{"name":"settleBlockHash","type":"bytes32","internalType":"bytes32"}]}]}],"stateMutability":"pure"},{"type":"function","name":"setBlock","inputs":[{"name":"blockNo","type":"uint256","internalType":"uint256"}],"outputs":[],"stateMutability":"nonpayable"},{"type":"function","name":"setChain","inputs":[{"name":"chainId","type":"uint256","internalType":"uint256"},{"name":"blockNo","type":"uint256","internalType":"uint256"}],"outputs":[],"stateMutability":"nonpayable"}],"bytecode":{"object":"0x61010060405234801561001157600080fd5b506040516106b63803806106b68339810160408190526100309161004f565b6001600160a01b0390931660805260a09190915260c05260e05261009a565b6000806000806080858703121561006557600080fd5b84516001600160a01b038116811461007c57600080fd5b60208601516040870151606090970151919890975090945092505050565b60805160a05160c05160e0516105e56100d160003960006101c00152600060ea0152600060c80152600061013701526105e56000f3fe608060405234801561001057600080fd5b506004361061004c5760003560e01c8063278f4b881461005157806387cea3ae1461007c578063faf924cf14610091578063ffbc5638146100a6575b600080fd5b61006461005f3660046103ca565b6100b9565b604051610073939291906104b6565b60405180910390f35b61008f61008a3660046104e1565b61020f565b005b610099610289565b60405161007391906104fa565b61008f6100b436600461050f565b61029e565b6100c1610338565b60008080807f00000000000000000000000000000000000000000000000000000000000000005b7f000000000000000000000000000000000000000000000000000000000000000081116101ec576101188161020f565b6040516370a0823160e01b81526001600160a01b0388811660048301527f000000000000000000000000000000000000000000000000000000000000000016906370a0823190602401602060405180830381865afa15801561017e573d6000803e3d6000fd5b505050506040513d601f19601f820116820180604052508101906101a29190610531565b6101ac908461054a565b92506101b960018361054a565b91506101e57f00000000000000000000000000000000000000000000000000000000000000008261054a565b90506100e8565b506101f5610289565b86610200838561056b565b94509450945050509193909250565b6040516343e751d760e11b8152600481018290527376dc9aa45aa006a0f63942d8f9f21bd4537972a3906387cea3ae906024016020604051808303816000875af1158015610261573d6000803e3d6000fd5b505050506040513d601f19601f82011682018060405250810190610285919061058d565b5050565b610291610338565b610299610323565b905090565b60405160016208753960e31b0319815260048101839052602481018290527376dc9aa45aa006a0f63942d8f9f21bd4537972a39063ffbc5638906044016020604051808303816000875af11580156102fa573d6000803e3d6000fd5b505050506040513d601f19601f8201168201806040525081019061031e919061058d565b505050565b61032b610338565b610333610338565b919050565b604051806080016040528061034b610384565b81526000602080830182905260408084018390528051608081018252838152918201839052810182905260608181019290925291015290565b6040805160608101909152600081526020810161039f6103ab565b81526020016000905290565b6040518061010001604052806008906020820280368337509192915050565b6000602082840312156103dc57600080fd5b81356001600160a01b03811681146103f357600080fd5b9392505050565b805180516001600160e01b031916835260208082015181850160005b600881101561043357825182529183019190830190600101610416565b50505050604001516002811061045957634e487b7160e01b600052602160045260246000fd5b61012083015260208181015161014084015260408083015161016085015260609283015180516001600160a01b0316610180860152918201516001600160e01b0319166101a08501528101516101c084015201516101e090910152565b61024081016104c582866103fa565b6001600160a01b03939093166102008201526102200152919050565b6000602082840312156104f357600080fd5b5035919050565b610200810161050982846103fa565b92915050565b6000806040838503121561052257600080fd5b50508035926020909101359150565b60006020828403121561054357600080fd5b5051919050565b8082018082111561050957634e487b7160e01b600052601160045260246000fd5b60008261058857634e487b7160e01b600052601260045260246000fd5b500490565b60006020828403121561059f57600080fd5b815180151581146103f357600080fdfea26469706673582212202a0284e5ec8771b7a5e9e3ed592eb09be6c3edad1bd8b7071b0edee284f1c84a64736f6c63430008190033","linkReferences":{}},"methodIdentifiers":{"averageBalanceOf(address)":"278f4b88","proof()":"faf924cf","setBlock(uint256)":"87cea3ae","setChain(uint256,uint256)":"ffbc5638"},"id":59}