{
    "abi": [
        {
            "type": "function",
            "name": "createEvent",
            "inputs": [
                {
                    "name": "_name",
                    "type": "string",
                    "internalType": "string"
                },
                {
                    "name": "_url",
                    "type": "string",
                    "internalType": "string"
                },
                {
                    "name": "_time",
                    "type": "uint256",
                    "internalType": "uint256"
                },
                {
                    "name": "_location",
                    "type": "string",
                    "internalType": "string"
                },
                {
                    "name": "_photo",
                    "type": "string",
                    "internalType": "string"
                },
                {
                    "name": "_n_tickets",
                    "type": "uint256",
                    "internalType": "uint256"
                },
                {
                    "name": "_price",
                    "type": "uint256",
                    "internalType": "uint256"
                },
                {
                    "name": "uri",
                    "type": "string",
                    "internalType": "string"
                },
                {
                    "name": "_emailVerifier",
                    "type": "address",
                    "internalType": "address"
                }
            ],
            "outputs": [
                {
                    "name": "",
                    "type": "address",
                    "internalType": "address"
                }
            ],
            "stateMutability": "nonpayable"
        },
        {
            "type": "function",
            "name": "eventTimes",
            "inputs": [
                {
                    "name": "",
                    "type": "address",
                    "internalType": "address"
                }
            ],
            "outputs": [
                {
                    "name": "",
                    "type": "uint256",
                    "internalType": "uint256"
                }
            ],
            "stateMutability": "view"
        },
        {
            "type": "function",
            "name": "eventsByOwner",
            "inputs": [
                {
                    "name": "",
                    "type": "address",
                    "internalType": "address"
                },
                {
                    "name": "",
                    "type": "uint256",
                    "internalType": "uint256"
                }
            ],
            "outputs": [
                {
                    "name": "",
                    "type": "address",
                    "internalType": "address"
                }
            ],
            "stateMutability": "view"
        },
        {
            "type": "function",
            "name": "futureEventIndices",
            "inputs": [
                {
                    "name": "",
                    "type": "address",
                    "internalType": "address"
                }
            ],
            "outputs": [
                {
                    "name": "",
                    "type": "uint256",
                    "internalType": "uint256"
                }
            ],
            "stateMutability": "view"
        },
        {
            "type": "function",
            "name": "futureEvents",
            "inputs": [
                {
                    "name": "",
                    "type": "uint256",
                    "internalType": "uint256"
                }
            ],
            "outputs": [
                {
                    "name": "",
                    "type": "address",
                    "internalType": "address"
                }
            ],
            "stateMutability": "view"
        },
        {
            "type": "function",
            "name": "getEventCounts",
            "inputs": [],
            "outputs": [
                {
                    "name": "future",
                    "type": "uint256",
                    "internalType": "uint256"
                },
                {
                    "name": "past",
                    "type": "uint256",
                    "internalType": "uint256"
                }
            ],
            "stateMutability": "view"
        },
        {
            "type": "function",
            "name": "getEventsByOwner",
            "inputs": [
                {
                    "name": "owner",
                    "type": "address",
                    "internalType": "address"
                }
            ],
            "outputs": [
                {
                    "name": "",
                    "type": "address[]",
                    "internalType": "address[]"
                }
            ],
            "stateMutability": "view"
        },
        {
            "type": "function",
            "name": "getFutureEvents",
            "inputs": [],
            "outputs": [
                {
                    "name": "",
                    "type": "address[]",
                    "internalType": "address[]"
                }
            ],
            "stateMutability": "view"
        },
        {
            "type": "function",
            "name": "getPastEvents",
            "inputs": [],
            "outputs": [
                {
                    "name": "",
                    "type": "address[]",
                    "internalType": "address[]"
                }
            ],
            "stateMutability": "view"
        },
        {
            "type": "function",
            "name": "getUpcomingEvents",
            "inputs": [
                {
                    "name": "timeWindow",
                    "type": "uint256",
                    "internalType": "uint256"
                }
            ],
            "outputs": [
                {
                    "name": "",
                    "type": "address[]",
                    "internalType": "address[]"
                }
            ],
            "stateMutability": "view"
        },
        {
            "type": "function",
            "name": "pastEvents",
            "inputs": [
                {
                    "name": "",
                    "type": "uint256",
                    "internalType": "uint256"
                }
            ],
            "outputs": [
                {
                    "name": "",
                    "type": "address",
                    "internalType": "address"
                }
            ],
            "stateMutability": "view"
        },
        {
            "type": "function",
            "name": "updateEventArrays",
            "inputs": [],
            "outputs": [],
            "stateMutability": "nonpayable"
        },
        {
            "type": "event",
            "name": "EventCreated",
            "inputs": [
                {
                    "name": "eventAddress",
                    "type": "address",
                    "indexed": false,
                    "internalType": "address"
                },
                {
                    "name": "owner",
                    "type": "address",
                    "indexed": false,
                    "internalType": "address"
                },
                {
                    "name": "eventTime",
                    "type": "uint256",
                    "indexed": false,
                    "internalType": "uint256"
                }
            ],
            "anonymous": false
        },
        {
            "type": "event",
            "name": "EventMovedToPast",
            "inputs": [
                {
                    "name": "eventAddress",
                    "type": "address",
                    "indexed": false,
                    "internalType": "address"
                }
            ],
            "anonymous": false
        }
    ],
    "bytecode": {
        "object": "0x6080604052348015600f57600080fd5b506131fd8061001f6000396000f3fe608060405234801561001057600080fd5b50600436106100b45760003560e01c80637eebd50e116100715780637eebd50e1461014d578063936da5e414610160578063b76b0a5614610168578063be2d03da14610196578063cde5f83d146101a9578063d4975533146101bc57600080fd5b806305444389146100b957806311ce44a0146100d757806319a86a491461010257806329cffdc51461010c57806374c2ad63146101275780637571d0d71461013a575b600080fd5b6100c16101dc565b6040516100ce9190610834565b60405180910390f35b6100ea6100e5366004610891565b61023e565b6040516001600160a01b0390911681526020016100ce565b61010a610276565b005b600054600154604080519283526020830191909152016100ce565b6100c16101353660046108bb565b610280565b6100ea6101483660046108dd565b6102f6565b6100ea61015b36600461099b565b610320565b6100c1610456565b6101886101763660046108bb565b60046020526000908152604090205481565b6040519081526020016100ce565b6100ea6101a43660046108dd565b6104b6565b6100c16101b73660046108dd565b6104c6565b6101886101ca3660046108bb565b60036020526000908152604090205481565b6060600180548060200260200160405190810160405280929190818152602001828054801561023457602002820191906000526020600020905b81546001600160a01b03168152600190910190602001808311610216575b5050505050905090565b6002602052816000526040600020818154811061025a57600080fd5b6000918252602090912001546001600160a01b03169150829050565b61027e610663565b565b6001600160a01b0381166000908152600260209081526040918290208054835181840281018401909452808452606093928301828280156102ea57602002820191906000526020600020905b81546001600160a01b031681526001909101906020018083116102cc575b50505050509050919050565b6001818154811061030657600080fd5b6000918252602090912001546001600160a01b0316905081565b6000808a8a8a8a8a8a8a338b8b60405161033990610827565b61034c9a99989796959493929190610afb565b604051809103906000f080158015610368573d6000803e3d6000fd5b506001600160a01b03811660008181526003602090815260408083208e9055825460048352818420819055600180820185557f290decd9548b62a8d60345a988386fc84ba6bc95484008f6362f93160ef3e56390910180546001600160a01b03199081168717909155338552600284529184208054918201815584529190922001805490911690911790559050806103fe610663565b604080516001600160a01b03831681523360208201529081018b90527f9229352b0d14eafc47b0692ddc57ed2ddcc1307e12b1397586b55360b5bdade19060600160405180910390a19b9a5050505050505050505050565b60606000805480602002602001604051908101604052809291908181526020018280548015610234576020028201919060005260206000209081546001600160a01b03168152600190910190602001808311610216575050505050905090565b6000818154811061030657600080fd5b606060006104d48342610bb9565b90506000805b60005481101561053b5782600360008084815481106104fb576104fb610bd2565b60009182526020808320909101546001600160a01b0316835282019290925260400190205411610533578161052f81610be8565b9250505b6001016104da565b5060008167ffffffffffffffff811115610557576105576108f6565b604051908082528060200260200182016040528015610580578160200160208202803683370190505b5090506000805b6000548110801561059757508382105b156106585784600360008084815481106105b3576105b3610bd2565b60009182526020808320909101546001600160a01b031683528201929092526040019020541161064657600081815481106105f0576105f0610bd2565b9060005260206000200160009054906101000a90046001600160a01b031683838151811061062057610620610bd2565b6001600160a01b03909216602092830291909101909101528161064281610be8565b9250505b8061065081610be8565b915050610587565b509095945050505050565b6000805461067390600190610c01565b90505b6000811261082457600080828154811061069257610692610bd2565b60009182526020808320909101546001600160a01b0316808352600390915260409091205490915042106108115760018054808201825560008281527fb10e2d527612073b26eecdfd717e6a320cf44b4afac2b0732d9fcbe2b7fa0cf690910180546001600160a01b0319166001600160a01b0385161790558054909161071891610c28565b905080831461079d57600080828154811061073557610735610bd2565b600091825260208220015481546001600160a01b0390911692508291908690811061076257610762610bd2565b600091825260208083209190910180546001600160a01b0319166001600160a01b039485161790559290911681526004909152604090208390555b60008054806107ae576107ae610c3b565b6000828152602090819020600019908301810180546001600160a01b03191690559091019091556040516001600160a01b03841681527f427913a16954f0630b34a4605ed15291d8dee0a9fe64b278c71e9a5b7207402b910160405180910390a1505b508061081c81610c51565b915050610676565b50565b61255980610c6f83390190565b602080825282518282018190526000918401906040840190835b818110156106585783516001600160a01b031683526020938401939092019160010161084e565b80356001600160a01b038116811461088c57600080fd5b919050565b600080604083850312156108a457600080fd5b6108ad83610875565b946020939093013593505050565b6000602082840312156108cd57600080fd5b6108d682610875565b9392505050565b6000602082840312156108ef57600080fd5b5035919050565b634e487b7160e01b600052604160045260246000fd5b600082601f83011261091d57600080fd5b813567ffffffffffffffff811115610937576109376108f6565b604051601f8201601f19908116603f0116810167ffffffffffffffff81118282101715610966576109666108f6565b60405281815283820160200185101561097e57600080fd5b816020850160208301376000918101602001919091529392505050565b60008060008060008060008060006101208a8c0312156109ba57600080fd5b893567ffffffffffffffff8111156109d157600080fd5b6109dd8c828d0161090c565b99505060208a013567ffffffffffffffff8111156109fa57600080fd5b610a068c828d0161090c565b98505060408a0135965060608a013567ffffffffffffffff811115610a2a57600080fd5b610a368c828d0161090c565b96505060808a013567ffffffffffffffff811115610a5357600080fd5b610a5f8c828d0161090c565b95505060a08a0135935060c08a0135925060e08a013567ffffffffffffffff811115610a8a57600080fd5b610a968c828d0161090c565b925050610aa66101008b01610875565b90509295985092959850929598565b6000815180845260005b81811015610adb57602081850181015186830182015201610abf565b506000602082860101526020601f19601f83011685010191505092915050565b61014081526000610b1061014083018d610ab5565b8281036020840152610b22818d610ab5565b90508a60408401528281036060840152610b3c818b610ab5565b90508281036080840152610b50818a610ab5565b60a0840189905260c084018890526001600160a01b03871660e08501528381036101008501529050610b828186610ab5565b91505060018060a01b0383166101208301529b9a5050505050505050505050565b634e487b7160e01b600052601160045260246000fd5b80820180821115610bcc57610bcc610ba3565b92915050565b634e487b7160e01b600052603260045260246000fd5b600060018201610bfa57610bfa610ba3565b5060010190565b8181036000831280158383131683831282161715610c2157610c21610ba3565b5092915050565b81810381811115610bcc57610bcc610ba3565b634e487b7160e01b600052603160045260246000fd5b6000600160ff1b8201610c6657610c66610ba3565b50600019019056fe608060405234801561001057600080fd5b5060405161255938038061255983398101604081905261002f916102c4565b6040518060400160405280600c81526020016b115d995b9d08151a58dad95d60a21b815250604051806040016040528060048152602001631510d2d560e21b8152508160009081610080919061047d565b50600161008d828261047d565b5050504288116100e35760405162461bcd60e51b815260206004820152601c60248201527f4576656e742074696d65206d75737420626520696e2066757475726500000000604482015260640160405180910390fd5b60408051610100810182528b8152602081018b9052908101899052606081018890526080810187905260a08101869052600060c082015260e0810185905260068061012e8d8261047d565b5060208201516001820190610143908261047d565b506040820151600282015560608201516003820190610162908261047d565b5060808201516004820190610177908261047d565b5060a0820151600582015560c0820151600682015560e090910151600790910155600e80546001600160a01b0319166001600160a01b03851617905560106101bf838261047d565b50601280546001600160a01b0319166001600160a01b03929092169190911790555061053b975050505050505050565b634e487b7160e01b600052604160045260246000fd5b600082601f83011261021657600080fd5b81516001600160401b0381111561022f5761022f6101ef565b604051601f8201601f19908116603f011681016001600160401b038111828210171561025d5761025d6101ef565b60405281815283820160200185101561027557600080fd5b60005b8281101561029457602081860181015183830182015201610278565b506000918101602001919091529392505050565b80516001600160a01b03811681146102bf57600080fd5b919050565b6000806000806000806000806000806101408b8d0312156102e457600080fd5b8a516001600160401b038111156102fa57600080fd5b6103068d828e01610205565b60208d0151909b5090506001600160401b0381111561032457600080fd5b6103308d828e01610205565b60408d015160608e0151919b50995090506001600160401b0381111561035557600080fd5b6103618d828e01610205565b60808d015190985090506001600160401b0381111561037f57600080fd5b61038b8d828e01610205565b60a08d015160c08e0151919850965094506103aa905060e08c016102a8565b6101008c01519093506001600160401b038111156103c757600080fd5b6103d38d828e01610205565b9250506103e36101208c016102a8565b90509295989b9194979a5092959850565b600181811c9082168061040857607f821691505b60208210810361042857634e487b7160e01b600052602260045260246000fd5b50919050565b601f82111561047857806000526020600020601f840160051c810160208510156104555750805b601f840160051c820191505b818110156104755760008155600101610461565b50505b505050565b81516001600160401b03811115610496576104966101ef565b6104aa816104a484546103f4565b8461042e565b6020601f8211600181146104de57600083156104c65750848201515b600019600385901b1c1916600184901b178455610475565b600084815260208120601f198516915b8281101561050e57878501518255602094850194600190920191016104ee565b508482101561052c5786840151600019600387901b60f8161c191681555b50505050600190811b01905550565b61200f8061054a6000396000f3fe6080604052600436106101665760003560e01c806370a08231116100d1578063b7fe93791161008a578063df30465e11610064578063df30465e1461043f578063e2142fde14610460578063e985e9c514610480578063ff99a063146104a057600080fd5b8063b7fe9379146103d2578063b88d4fde146103ff578063c87b56dd1461041f57600080fd5b806370a0823114610313578063808a297f146103415780638da5cb5b1461035457806395d89b4114610374578063a22cb46514610389578063b1b410f5146103a957600080fd5b80633ccfd60b116101235780633ccfd60b1461025c57806342842e0e14610271578063543cb81f1461029157806355f804b3146102b15780636352211e146102d15780636d00fa68146102f157600080fd5b806301ffc9a71461016b57806306fdde03146101a0578063081812fc146101c2578063095ea7b3146101fa57806322687ad21461021c57806323b872dd1461023c575b600080fd5b34801561017757600080fd5b5061018b6101863660046118cc565b6104e7565b60405190151581526020015b60405180910390f35b3480156101ac57600080fd5b506101b5610539565b6040516101979190611939565b3480156101ce57600080fd5b506101e26101dd36600461194c565b6105cb565b6040516001600160a01b039091168152602001610197565b34801561020657600080fd5b5061021a610215366004611981565b6105f4565b005b34801561022857600080fd5b506012546101e2906001600160a01b031681565b34801561024857600080fd5b5061021a6102573660046119ab565b610603565b34801561026857600080fd5b5061021a610693565b34801561027d57600080fd5b5061021a61028c3660046119ab565b61076c565b34801561029d57600080fd5b5061018b6102ac36600461194c565b61078c565b3480156102bd57600080fd5b5061021a6102cc366004611a78565b6107b9565b3480156102dd57600080fd5b506101e26102ec36600461194c565b61081f565b3480156102fd57600080fd5b5061030661082a565b6040516101979190611ac1565b34801561031f57600080fd5b5061033361032e366004611b6e565b610af5565b604051908152602001610197565b61021a61034f366004611b89565b610b3d565b34801561036057600080fd5b50600e546101e2906001600160a01b031681565b34801561038057600080fd5b506101b5610e22565b34801561039557600080fd5b5061021a6103a4366004611ba5565b610e31565b3480156103b557600080fd5b506103be610e3c565b604051610197989796959493929190611be1565b3480156103de57600080fd5b506103336103ed36600461194c565b60116020526000908152604090205481565b34801561040b57600080fd5b5061021a61041a366004611c57565b611090565b34801561042b57600080fd5b506101b561043a36600461194c565b6110a8565b34801561044b57600080fd5b5061018b61045a366004611a78565b51151590565b34801561046c57600080fd5b5061018b61047b366004611b6e565b611110565b34801561048c57600080fd5b5061018b61049b366004611cd3565b611123565b3480156104ac57600080fd5b506104c06104bb36600461194c565b611151565b604080516001600160a01b0390941684526020840192909252151590820152606001610197565b60006001600160e01b031982166380ac58cd60e01b148061051857506001600160e01b03198216635b5e139f60e01b145b8061053357506301ffc9a760e01b6001600160e01b03198316145b92915050565b60606000805461054890611d06565b80601f016020809104026020016040519081016040528092919081815260200182805461057490611d06565b80156105c15780601f10610596576101008083540402835291602001916105c1565b820191906000526020600020905b8154815290600101906020018083116105a457829003601f168201915b5050505050905090565b60006105d6826111c9565b506000828152600460205260409020546001600160a01b0316610533565b6105ff828233611202565b5050565b6001600160a01b03821661063257604051633250574960e11b8152600060048201526024015b60405180910390fd5b600061063f83833361120f565b9050836001600160a01b0316816001600160a01b03161461068d576040516364283d7b60e01b81526001600160a01b0380861660048301526024820184905282166044820152606401610629565b50505050565b600e546001600160a01b031633146106ed5760405162461bcd60e51b815260206004820152601760248201527f4f6e6c79206f776e65722063616e2077697468647261770000000000000000006044820152606401610629565b47806107325760405162461bcd60e51b81526020600482015260146024820152734e6f2066756e647320746f20776974686472617760601b6044820152606401610629565b600e546040516001600160a01b039091169082156108fc029083906000818181858888f193505050501580156105ff573d6000803e3d6000fd5b61078783838360405180602001604052806000815250611090565b505050565b6000600f548211156107a057506000919050565b60085442106107b157506000919050565b506001919050565b600e546001600160a01b031633146108135760405162461bcd60e51b815260206004820152601b60248201527f4f6e6c79206f776e65722063616e2073657420626173652055524900000000006044820152606401610629565b60106105ff8282611d87565b6000610533826111c9565b61087260405180610100016040528060608152602001606081526020016000815260200160608152602001606081526020016000815260200160008152602001600081525090565b60066040518061010001604052908160008201805461089090611d06565b80601f01602080910402602001604051908101604052809291908181526020018280546108bc90611d06565b80156109095780601f106108de57610100808354040283529160200191610909565b820191906000526020600020905b8154815290600101906020018083116108ec57829003601f168201915b5050505050815260200160018201805461092290611d06565b80601f016020809104026020016040519081016040528092919081815260200182805461094e90611d06565b801561099b5780601f106109705761010080835404028352916020019161099b565b820191906000526020600020905b81548152906001019060200180831161097e57829003601f168201915b50505050508152602001600282015481526020016003820180546109be90611d06565b80601f01602080910402602001604051908101604052809291908181526020018280546109ea90611d06565b8015610a375780601f10610a0c57610100808354040283529160200191610a37565b820191906000526020600020905b815481529060010190602001808311610a1a57829003601f168201915b50505050508152602001600482018054610a5090611d06565b80601f0160208091040260200160405190810160405280929190818152602001828054610a7c90611d06565b8015610ac95780601f10610a9e57610100808354040283529160200191610ac9565b820191906000526020600020905b815481529060010190602001808311610aac57829003601f168201915b505050505081526020016005820154815260200160068201548152602001600782015481525050905090565b60006001600160a01b038216610b21576040516322718ad960e21b815260006004820152602401610629565b506001600160a01b031660009081526003602052604090205490565b6008544210610b8e5760405162461bcd60e51b815260206004820152601860248201527f4576656e742068617320616c72656164792070617373656400000000000000006044820152606401610629565b600b54600c5410610bd55760405162461bcd60e51b8152602060048201526011602482015270115d995b9d081a5cc81cdbdb19081bdd5d607a1b6044820152606401610629565b610bde33611110565b15610c2b5760405162461bcd60e51b815260206004820152601c60248201527f4164647265737320616c7265616479206861732061207469636b6574000000006044820152606401610629565b6012546001600160a01b031615610c9d5760125460405163257dc93360e21b81526001600160a01b03909116906395f724cc90610c6c908490600401611e46565b60006040518083038186803b158015610c8457600080fd5b505afa158015610c98573d6000803e3d6000fd5b505050505b600d5415610cf357600d54341015610cee5760405162461bcd60e51b8152602060048201526014602482015273125b9cdd59999a58da595b9d081c185e5b595b9d60621b6044820152606401610629565b610d4c565b3415610d4c5760405162461bcd60e51b815260206004820152602260248201527f4576656e7420697320667265652c206e6f207061796d656e7420726571756972604482015261195960f21b6064820152608401610629565b6001600680016000828254610d619190611f11565b9091555050600f8054906000610d7683611f24565b9091555050600f54610d883382611308565b600c54600082815260116020908152604091829020839055815133815290810184905280820192909252517fcbea9c23945e351434f7ae5b1a435091cc278dd9dd0eba4c04203674014ca7d79181900360600190a1600d543411156105ff57600d5433906108fc90610dfa9034611f3d565b6040518115909202916000818181858888f19350505050158015610787573d6000803e3d6000fd5b60606001805461054890611d06565b6105ff338383611322565b600680548190610e4b90611d06565b80601f0160208091040260200160405190810160405280929190818152602001828054610e7790611d06565b8015610ec45780601f10610e9957610100808354040283529160200191610ec4565b820191906000526020600020905b815481529060010190602001808311610ea757829003601f168201915b505050505090806001018054610ed990611d06565b80601f0160208091040260200160405190810160405280929190818152602001828054610f0590611d06565b8015610f525780601f10610f2757610100808354040283529160200191610f52565b820191906000526020600020905b815481529060010190602001808311610f3557829003601f168201915b505050505090806002015490806003018054610f6d90611d06565b80601f0160208091040260200160405190810160405280929190818152602001828054610f9990611d06565b8015610fe65780601f10610fbb57610100808354040283529160200191610fe6565b820191906000526020600020905b815481529060010190602001808311610fc957829003601f168201915b505050505090806004018054610ffb90611d06565b80601f016020809104026020016040519081016040528092919081815260200182805461102790611d06565b80156110745780601f1061104957610100808354040283529160200191611074565b820191906000526020600020905b81548152906001019060200180831161105757829003601f168201915b5050505050908060050154908060060154908060070154905088565b61109b848484610603565b61068d33858585856113c1565b60606110b3826111c9565b5060006110be6114ec565b905060008151116110de5760405180602001604052806000815250611109565b806110e8846114fb565b6040516020016110f9929190611f50565b6040516020818303038152906040525b9392505050565b60008061111c83610af5565b1192915050565b6001600160a01b03918216600090815260056020908152604080832093909416825291909152205460ff1690565b6000806000600f548411156111a05760405162461bcd60e51b8152602060048201526015602482015274151a58dad95d08191bd95cc81b9bdd08195e1a5cdd605a1b6044820152606401610629565b6111a98461081f565b600094855260116020526040909420546008549495909442109350915050565b6000818152600260205260408120546001600160a01b03168061053357604051637e27328960e01b815260048101849052602401610629565b610787838383600161158e565b6000828152600260205260408120546001600160a01b039081169083161561123c5761123c818486611694565b6001600160a01b0381161561127a5761125960008560008061158e565b6001600160a01b038116600090815260036020526040902080546000190190555b6001600160a01b038516156112a9576001600160a01b0385166000908152600360205260409020805460010190555b60008481526002602052604080822080546001600160a01b0319166001600160a01b0389811691821790925591518793918516917fddf252ad1be2c89b69c2b068fc378daa952ba7f163c4a11628f55a4df523b3ef91a4949350505050565b6105ff8282604051806020016040528060008152506116f8565b6001600160a01b03821661135457604051630b61174360e31b81526001600160a01b0383166004820152602401610629565b6001600160a01b03838116600081815260056020908152604080832094871680845294825291829020805460ff191686151590811790915591519182527f17307eab39ab6107e8899845ad3d59bd9653f200f220920489ca2b5937696c31910160405180910390a3505050565b6001600160a01b0383163b156114e557604051630a85bd0160e11b81526001600160a01b0384169063150b7a0290611403908890889087908790600401611f7f565b6020604051808303816000875af192505050801561143e575060408051601f3d908101601f1916820190925261143b91810190611fbc565b60015b6114a7573d80801561146c576040519150601f19603f3d011682016040523d82523d6000602084013e611471565b606091505b50805160000361149f57604051633250574960e11b81526001600160a01b0385166004820152602401610629565b805181602001fd5b6001600160e01b03198116630a85bd0160e11b146114e357604051633250574960e11b81526001600160a01b0385166004820152602401610629565b505b5050505050565b60606010805461054890611d06565b6060600061150883611710565b600101905060008167ffffffffffffffff811115611528576115286119e8565b6040519080825280601f01601f191660200182016040528015611552576020820181803683370190505b5090508181016020015b600019016f181899199a1a9b1b9c1cb0b131b232b360811b600a86061a8153600a850494508461155c57509392505050565b80806115a257506001600160a01b03821615155b156116645760006115b2846111c9565b90506001600160a01b038316158015906115de5750826001600160a01b0316816001600160a01b031614155b80156115f157506115ef8184611123565b155b1561161a5760405163a9fbf51f60e01b81526001600160a01b0384166004820152602401610629565b81156116625783856001600160a01b0316826001600160a01b03167f8c5be1e5ebec7d5bd14f71427d1e84f3dd0314c0f7b2291e5b200ac8c7c3b92560405160405180910390a45b505b5050600090815260046020526040902080546001600160a01b0319166001600160a01b0392909216919091179055565b61169f8383836117e8565b610787576001600160a01b0383166116cd57604051637e27328960e01b815260048101829052602401610629565b60405163177e802f60e01b81526001600160a01b038316600482015260248101829052604401610629565b611702838361184e565b6107873360008585856113c1565b60008072184f03e93ff9f4daa797ed6e38ed64bf6a1f0160401b831061174f5772184f03e93ff9f4daa797ed6e38ed64bf6a1f0160401b830492506040015b6d04ee2d6d415b85acef8100000000831061177b576d04ee2d6d415b85acef8100000000830492506020015b662386f26fc10000831061179957662386f26fc10000830492506010015b6305f5e10083106117b1576305f5e100830492506008015b61271083106117c557612710830492506004015b606483106117d7576064830492506002015b600a83106105335760010192915050565b60006001600160a01b038316158015906118465750826001600160a01b0316846001600160a01b0316148061182257506118228484611123565b8061184657506000828152600460205260409020546001600160a01b038481169116145b949350505050565b6001600160a01b03821661187857604051633250574960e11b815260006004820152602401610629565b60006118868383600061120f565b90506001600160a01b03811615610787576040516339e3563760e11b815260006004820152602401610629565b6001600160e01b0319811681146118c957600080fd5b50565b6000602082840312156118de57600080fd5b8135611109816118b3565b60005b838110156119045781810151838201526020016118ec565b50506000910152565b600081518084526119258160208601602086016118e9565b601f01601f19169290920160200192915050565b602081526000611109602083018461190d565b60006020828403121561195e57600080fd5b5035919050565b80356001600160a01b038116811461197c57600080fd5b919050565b6000806040838503121561199457600080fd5b61199d83611965565b946020939093013593505050565b6000806000606084860312156119c057600080fd5b6119c984611965565b92506119d760208501611965565b929592945050506040919091013590565b634e487b7160e01b600052604160045260246000fd5b60008067ffffffffffffffff841115611a1957611a196119e8565b50604051601f19601f85018116603f0116810181811067ffffffffffffffff82111715611a4857611a486119e8565b604052838152905080828401851015611a6057600080fd5b83836020830137600060208583010152509392505050565b600060208284031215611a8a57600080fd5b813567ffffffffffffffff811115611aa157600080fd5b8201601f81018413611ab257600080fd5b611846848235602084016119fe565b60208152600082516101006020840152611adf61012084018261190d565b90506020840151601f19848303016040850152611afc828261190d565b915050604084015160608401526060840151601f19848303016080850152611b24828261190d565b9150506080840151601f198483030160a0850152611b42828261190d565b91505060a084015160c084015260c084015160e084015260e08401516101008401528091505092915050565b600060208284031215611b8057600080fd5b61110982611965565b6000610200828403128015611b9d57600080fd5b509092915050565b60008060408385031215611bb857600080fd5b611bc183611965565b915060208301358015158114611bd657600080fd5b809150509250929050565b61010081526000611bf661010083018b61190d565b8281036020840152611c08818b61190d565b90508860408401528281036060840152611c22818961190d565b90508281036080840152611c36818861190d565b60a0840196909652505060c081019290925260e09091015295945050505050565b60008060008060808587031215611c6d57600080fd5b611c7685611965565b9350611c8460208601611965565b925060408501359150606085013567ffffffffffffffff811115611ca757600080fd5b8501601f81018713611cb857600080fd5b611cc7878235602084016119fe565b91505092959194509250565b60008060408385031215611ce657600080fd5b611cef83611965565b9150611cfd60208401611965565b90509250929050565b600181811c90821680611d1a57607f821691505b602082108103611d3a57634e487b7160e01b600052602260045260246000fd5b50919050565b601f82111561078757806000526020600020601f840160051c81016020851015611d675750805b601f840160051c820191505b818110156114e55760008155600101611d73565b815167ffffffffffffffff811115611da157611da16119e8565b611db581611daf8454611d06565b84611d40565b6020601f821160018114611de95760008315611dd15750848201515b600019600385901b1c1916600184901b1784556114e5565b600084815260208120601f198516915b82811015611e195787850151825560209485019460019092019101611df9565b5084821015611e375786840151600019600387901b60f8161c191681555b50505050600190811b01905550565b61020081018235611e56816118b3565b6001600160e01b031916825261010060208481019084013761012083013560028110158015611e8457600080fd5b50610120830152610140838101359083015261016080840135908301526101808083019060009085016001600160a01b03611ebe82611965565b1683526020810135611ecf816118b3565b6001600160e01b0319166020840152604081810135908401526060908101359201919091525092915050565b634e487b7160e01b600052601160045260246000fd5b8082018082111561053357610533611efb565b600060018201611f3657611f36611efb565b5060010190565b8181038181111561053357610533611efb565b60008351611f628184602088016118e9565b835190830190611f768183602088016118e9565b01949350505050565b6001600160a01b0385811682528416602082015260408101839052608060608201819052600090611fb29083018461190d565b9695505050505050565b600060208284031215611fce57600080fd5b8151611109816118b356fea26469706673582212203fd9ad1c2e626f067b2793e70be42b73a2d69a3e4579b8edd18e22418a6e614364736f6c634300081b0033a2646970667358221220b4e6b173be60de6f5adbb2824d50538e4d672d8235bba57b3135073ca718a67d64736f6c634300081b0033",
        "linkReferences": {}
    },
    "methodIdentifiers": {
        "createEvent(string,string,uint256,string,string,uint256,uint256,string,address)": "7eebd50e",
        "eventTimes(address)": "d4975533",
        "eventsByOwner(address,uint256)": "11ce44a0",
        "futureEventIndices(address)": "b76b0a56",
        "futureEvents(uint256)": "be2d03da",
        "getEventCounts()": "29cffdc5",
        "getEventsByOwner(address)": "74c2ad63",
        "getFutureEvents()": "936da5e4",
        "getPastEvents()": "05444389",
        "getUpcomingEvents(uint256)": "cde5f83d",
        "pastEvents(uint256)": "7571d0d7",
        "updateEventArrays()": "19a86a49"
    },
    "id": 17
}