{
    "abi": [
        {
            "type": "constructor",
            "inputs": [
                {
                    "name": "_name",
                    "type": "string",
                    "internalType": "string"
                },
                {
                    "name": "_url",
                    "type": "string",
                    "internalType": "string"
                },
                {
                    "name": "_time",
                    "type": "uint256",
                    "internalType": "uint256"
                },
                {
                    "name": "_location",
                    "type": "string",
                    "internalType": "string"
                },
                {
                    "name": "_photo",
                    "type": "string",
                    "internalType": "string"
                },
                {
                    "name": "_n_tickets",
                    "type": "uint256",
                    "internalType": "uint256"
                },
                {
                    "name": "_price",
                    "type": "uint256",
                    "internalType": "uint256"
                },
                {
                    "name": "_owner",
                    "type": "address",
                    "internalType": "address"
                },
                {
                    "name": "__baseURI",
                    "type": "string",
                    "internalType": "string"
                },
                {
                    "name": "_email_verifier",
                    "type": "address",
                    "internalType": "address"
                }
            ],
            "stateMutability": "nonpayable"
        },
        {
            "type": "function",
            "name": "approve",
            "inputs": [
                {
                    "name": "to",
                    "type": "address",
                    "internalType": "address"
                },
                {
                    "name": "tokenId",
                    "type": "uint256",
                    "internalType": "uint256"
                }
            ],
            "outputs": [],
            "stateMutability": "nonpayable"
        },
        {
            "type": "function",
            "name": "balanceOf",
            "inputs": [
                {
                    "name": "owner",
                    "type": "address",
                    "internalType": "address"
                }
            ],
            "outputs": [
                {
                    "name": "",
                    "type": "uint256",
                    "internalType": "uint256"
                }
            ],
            "stateMutability": "view"
        },
        {
            "type": "function",
            "name": "buy",
            "inputs": [],
            "outputs": [],
            "stateMutability": "payable"
        },
        {
            "type": "function",
            "name": "buyWithProof",
            "inputs": [
                {
                    "name": "emailProof",
                    "type": "tuple",
                    "internalType": "struct Proof",
                    "components": [
                        {
                            "name": "seal",
                            "type": "tuple",
                            "internalType": "struct Seal",
                            "components": [
                                {
                                    "name": "verifierSelector",
                                    "type": "bytes4",
                                    "internalType": "bytes4"
                                },
                                {
                                    "name": "seal",
                                    "type": "bytes32[8]",
                                    "internalType": "bytes32[8]"
                                },
                                {
                                    "name": "mode",
                                    "type": "uint8",
                                    "internalType": "enum ProofMode"
                                }
                            ]
                        },
                        {
                            "name": "callGuestId",
                            "type": "bytes32",
                            "internalType": "bytes32"
                        },
                        {
                            "name": "length",
                            "type": "uint256",
                            "internalType": "uint256"
                        },
                        {
                            "name": "callAssumptions",
                            "type": "tuple",
                            "internalType": "struct CallAssumptions",
                            "components": [
                                {
                                    "name": "proverContractAddress",
                                    "type": "address",
                                    "internalType": "address"
                                },
                                {
                                    "name": "functionSelector",
                                    "type": "bytes4",
                                    "internalType": "bytes4"
                                },
                                {
                                    "name": "settleBlockNumber",
                                    "type": "uint256",
                                    "internalType": "uint256"
                                },
                                {
                                    "name": "settleBlockHash",
                                    "type": "bytes32",
                                    "internalType": "bytes32"
                                }
                            ]
                        }
                    ]
                }
            ],
            "outputs": [],
            "stateMutability": "payable"
        },
        {
            "type": "function",
            "name": "emailVerifier",
            "inputs": [],
            "outputs": [
                {
                    "name": "",
                    "type": "address",
                    "internalType": "address"
                }
            ],
            "stateMutability": "view"
        },
        {
            "type": "function",
            "name": "eventInfo",
            "inputs": [],
            "outputs": [
                {
                    "name": "name",
                    "type": "string",
                    "internalType": "string"
                },
                {
                    "name": "url",
                    "type": "string",
                    "internalType": "string"
                },
                {
                    "name": "time",
                    "type": "uint256",
                    "internalType": "uint256"
                },
                {
                    "name": "location",
                    "type": "string",
                    "internalType": "string"
                },
                {
                    "name": "photo",
                    "type": "string",
                    "internalType": "string"
                },
                {
                    "name": "n_tickets",
                    "type": "uint256",
                    "internalType": "uint256"
                },
                {
                    "name": "n_tickets_sold",
                    "type": "uint256",
                    "internalType": "uint256"
                },
                {
                    "name": "price",
                    "type": "uint256",
                    "internalType": "uint256"
                }
            ],
            "stateMutability": "view"
        },
        {
            "type": "function",
            "name": "getApproved",
            "inputs": [
                {
                    "name": "tokenId",
                    "type": "uint256",
                    "internalType": "uint256"
                }
            ],
            "outputs": [
                {
                    "name": "",
                    "type": "address",
                    "internalType": "address"
                }
            ],
            "stateMutability": "view"
        },
        {
            "type": "function",
            "name": "getEventInfo",
            "inputs": [],
            "outputs": [
                {
                    "name": "",
                    "type": "tuple",
                    "internalType": "struct EventTicketing.EventInfo",
                    "components": [
                        {
                            "name": "name",
                            "type": "string",
                            "internalType": "string"
                        },
                        {
                            "name": "url",
                            "type": "string",
                            "internalType": "string"
                        },
                        {
                            "name": "time",
                            "type": "uint256",
                            "internalType": "uint256"
                        },
                        {
                            "name": "location",
                            "type": "string",
                            "internalType": "string"
                        },
                        {
                            "name": "photo",
                            "type": "string",
                            "internalType": "string"
                        },
                        {
                            "name": "n_tickets",
                            "type": "uint256",
                            "internalType": "uint256"
                        },
                        {
                            "name": "n_tickets_sold",
                            "type": "uint256",
                            "internalType": "uint256"
                        },
                        {
                            "name": "price",
                            "type": "uint256",
                            "internalType": "uint256"
                        }
                    ]
                }
            ],
            "stateMutability": "view"
        },
        {
            "type": "function",
            "name": "getTicketInfo",
            "inputs": [
                {
                    "name": "tokenId",
                    "type": "uint256",
                    "internalType": "uint256"
                }
            ],
            "outputs": [
                {
                    "name": "ticketOwner",
                    "type": "address",
                    "internalType": "address"
                },
                {
                    "name": "ticketNumber",
                    "type": "uint256",
                    "internalType": "uint256"
                },
                {
                    "name": "isValid",
                    "type": "bool",
                    "internalType": "bool"
                }
            ],
            "stateMutability": "view"
        },
        {
            "type": "function",
            "name": "hasTicket",
            "inputs": [
                {
                    "name": "attendee",
                    "type": "address",
                    "internalType": "address"
                }
            ],
            "outputs": [
                {
                    "name": "",
                    "type": "bool",
                    "internalType": "bool"
                }
            ],
            "stateMutability": "view"
        },
        {
            "type": "function",
            "name": "isApprovedForAll",
            "inputs": [
                {
                    "name": "owner",
                    "type": "address",
                    "internalType": "address"
                },
                {
                    "name": "operator",
                    "type": "address",
                    "internalType": "address"
                }
            ],
            "outputs": [
                {
                    "name": "",
                    "type": "bool",
                    "internalType": "bool"
                }
            ],
            "stateMutability": "view"
        },
        {
            "type": "function",
            "name": "isNonEmptyString",
            "inputs": [
                {
                    "name": "str",
                    "type": "string",
                    "internalType": "string"
                }
            ],
            "outputs": [
                {
                    "name": "",
                    "type": "bool",
                    "internalType": "bool"
                }
            ],
            "stateMutability": "pure"
        },
        {
            "type": "function",
            "name": "name",
            "inputs": [],
            "outputs": [
                {
                    "name": "",
                    "type": "string",
                    "internalType": "string"
                }
            ],
            "stateMutability": "view"
        },
        {
            "type": "function",
            "name": "owner",
            "inputs": [],
            "outputs": [
                {
                    "name": "",
                    "type": "address",
                    "internalType": "address"
                }
            ],
            "stateMutability": "view"
        },
        {
            "type": "function",
            "name": "ownerOf",
            "inputs": [
                {
                    "name": "tokenId",
                    "type": "uint256",
                    "internalType": "uint256"
                }
            ],
            "outputs": [
                {
                    "name": "",
                    "type": "address",
                    "internalType": "address"
                }
            ],
            "stateMutability": "view"
        },
        {
            "type": "function",
            "name": "safeTransferFrom",
            "inputs": [
                {
                    "name": "from",
                    "type": "address",
                    "internalType": "address"
                },
                {
                    "name": "to",
                    "type": "address",
                    "internalType": "address"
                },
                {
                    "name": "tokenId",
                    "type": "uint256",
                    "internalType": "uint256"
                }
            ],
            "outputs": [],
            "stateMutability": "nonpayable"
        },
        {
            "type": "function",
            "name": "safeTransferFrom",
            "inputs": [
                {
                    "name": "from",
                    "type": "address",
                    "internalType": "address"
                },
                {
                    "name": "to",
                    "type": "address",
                    "internalType": "address"
                },
                {
                    "name": "tokenId",
                    "type": "uint256",
                    "internalType": "uint256"
                },
                {
                    "name": "data",
                    "type": "bytes",
                    "internalType": "bytes"
                }
            ],
            "outputs": [],
            "stateMutability": "nonpayable"
        },
        {
            "type": "function",
            "name": "setApprovalForAll",
            "inputs": [
                {
                    "name": "operator",
                    "type": "address",
                    "internalType": "address"
                },
                {
                    "name": "approved",
                    "type": "bool",
                    "internalType": "bool"
                }
            ],
            "outputs": [],
            "stateMutability": "nonpayable"
        },
        {
            "type": "function",
            "name": "setBaseURI",
            "inputs": [
                {
                    "name": "baseURI",
                    "type": "string",
                    "internalType": "string"
                }
            ],
            "outputs": [],
            "stateMutability": "nonpayable"
        },
        {
            "type": "function",
            "name": "supportsInterface",
            "inputs": [
                {
                    "name": "interfaceId",
                    "type": "bytes4",
                    "internalType": "bytes4"
                }
            ],
            "outputs": [
                {
                    "name": "",
                    "type": "bool",
                    "internalType": "bool"
                }
            ],
            "stateMutability": "view"
        },
        {
            "type": "function",
            "name": "symbol",
            "inputs": [],
            "outputs": [
                {
                    "name": "",
                    "type": "string",
                    "internalType": "string"
                }
            ],
            "stateMutability": "view"
        },
        {
            "type": "function",
            "name": "ticketNumbers",
            "inputs": [
                {
                    "name": "",
                    "type": "uint256",
                    "internalType": "uint256"
                }
            ],
            "outputs": [
                {
                    "name": "",
                    "type": "uint256",
                    "internalType": "uint256"
                }
            ],
            "stateMutability": "view"
        },
        {
            "type": "function",
            "name": "tokenURI",
            "inputs": [
                {
                    "name": "tokenId",
                    "type": "uint256",
                    "internalType": "uint256"
                }
            ],
            "outputs": [
                {
                    "name": "",
                    "type": "string",
                    "internalType": "string"
                }
            ],
            "stateMutability": "view"
        },
        {
            "type": "function",
            "name": "transferFrom",
            "inputs": [
                {
                    "name": "from",
                    "type": "address",
                    "internalType": "address"
                },
                {
                    "name": "to",
                    "type": "address",
                    "internalType": "address"
                },
                {
                    "name": "tokenId",
                    "type": "uint256",
                    "internalType": "uint256"
                }
            ],
            "outputs": [],
            "stateMutability": "nonpayable"
        },
        {
            "type": "function",
            "name": "verifyTicket",
            "inputs": [
                {
                    "name": "tokenId",
                    "type": "uint256",
                    "internalType": "uint256"
                }
            ],
            "outputs": [
                {
                    "name": "",
                    "type": "bool",
                    "internalType": "bool"
                }
            ],
            "stateMutability": "view"
        },
        {
            "type": "function",
            "name": "withdraw",
            "inputs": [],
            "outputs": [],
            "stateMutability": "nonpayable"
        },
        {
            "type": "event",
            "name": "Approval",
            "inputs": [
                {
                    "name": "owner",
                    "type": "address",
                    "indexed": true,
                    "internalType": "address"
                },
                {
                    "name": "approved",
                    "type": "address",
                    "indexed": true,
                    "internalType": "address"
                },
                {
                    "name": "tokenId",
                    "type": "uint256",
                    "indexed": true,
                    "internalType": "uint256"
                }
            ],
            "anonymous": false
        },
        {
            "type": "event",
            "name": "ApprovalForAll",
            "inputs": [
                {
                    "name": "owner",
                    "type": "address",
                    "indexed": true,
                    "internalType": "address"
                },
                {
                    "name": "operator",
                    "type": "address",
                    "indexed": true,
                    "internalType": "address"
                },
                {
                    "name": "approved",
                    "type": "bool",
                    "indexed": false,
                    "internalType": "bool"
                }
            ],
            "anonymous": false
        },
        {
            "type": "event",
            "name": "TicketMinted",
            "inputs": [
                {
                    "name": "to",
                    "type": "address",
                    "indexed": false,
                    "internalType": "address"
                },
                {
                    "name": "tokenId",
                    "type": "uint256",
                    "indexed": false,
                    "internalType": "uint256"
                },
                {
                    "name": "ticketNumber",
                    "type": "uint256",
                    "indexed": false,
                    "internalType": "uint256"
                }
            ],
            "anonymous": false
        },
        {
            "type": "event",
            "name": "Transfer",
            "inputs": [
                {
                    "name": "from",
                    "type": "address",
                    "indexed": true,
                    "internalType": "address"
                },
                {
                    "name": "to",
                    "type": "address",
                    "indexed": true,
                    "internalType": "address"
                },
                {
                    "name": "tokenId",
                    "type": "uint256",
                    "indexed": true,
                    "internalType": "uint256"
                }
            ],
            "anonymous": false
        },
        {
            "type": "error",
            "name": "ERC721IncorrectOwner",
            "inputs": [
                {
                    "name": "sender",
                    "type": "address",
                    "internalType": "address"
                },
                {
                    "name": "tokenId",
                    "type": "uint256",
                    "internalType": "uint256"
                },
                {
                    "name": "owner",
                    "type": "address",
                    "internalType": "address"
                }
            ]
        },
        {
            "type": "error",
            "name": "ERC721InsufficientApproval",
            "inputs": [
                {
                    "name": "operator",
                    "type": "address",
                    "internalType": "address"
                },
                {
                    "name": "tokenId",
                    "type": "uint256",
                    "internalType": "uint256"
                }
            ]
        },
        {
            "type": "error",
            "name": "ERC721InvalidApprover",
            "inputs": [
                {
                    "name": "approver",
                    "type": "address",
                    "internalType": "address"
                }
            ]
        },
        {
            "type": "error",
            "name": "ERC721InvalidOperator",
            "inputs": [
                {
                    "name": "operator",
                    "type": "address",
                    "internalType": "address"
                }
            ]
        },
        {
            "type": "error",
            "name": "ERC721InvalidOwner",
            "inputs": [
                {
                    "name": "owner",
                    "type": "address",
                    "internalType": "address"
                }
            ]
        },
        {
            "type": "error",
            "name": "ERC721InvalidReceiver",
            "inputs": [
                {
                    "name": "receiver",
                    "type": "address",
                    "internalType": "address"
                }
            ]
        },
        {
            "type": "error",
            "name": "ERC721InvalidSender",
            "inputs": [
                {
                    "name": "sender",
                    "type": "address",
                    "internalType": "address"
                }
            ]
        },
        {
            "type": "error",
            "name": "ERC721NonexistentToken",
            "inputs": [
                {
                    "name": "tokenId",
                    "type": "uint256",
                    "internalType": "uint256"
                }
            ]
        }
    ],
    "bytecode": {
        "object": "0x608060405234801561001057600080fd5b5060405161280638038061280683398101604081905261002f916102c4565b6040518060400160405280600c81526020016b115d995b9d08151a58dad95d60a21b815250604051806040016040528060048152602001631510d2d560e21b8152508160009081610080919061047d565b50600161008d828261047d565b5050504288116100e35760405162461bcd60e51b815260206004820152601c60248201527f4576656e742074696d65206d75737420626520696e2066757475726500000000604482015260640160405180910390fd5b60408051610100810182528b8152602081018b9052908101899052606081018890526080810187905260a08101869052600060c082015260e0810185905260068061012e8d8261047d565b5060208201516001820190610143908261047d565b506040820151600282015560608201516003820190610162908261047d565b5060808201516004820190610177908261047d565b5060a0820151600582015560c0820151600682015560e090910151600790910155600e80546001600160a01b0319166001600160a01b03851617905560106101bf838261047d565b50601280546001600160a01b0319166001600160a01b03929092169190911790555061053b975050505050505050565b634e487b7160e01b600052604160045260246000fd5b600082601f83011261021657600080fd5b81516001600160401b0381111561022f5761022f6101ef565b604051601f8201601f19908116603f011681016001600160401b038111828210171561025d5761025d6101ef565b60405281815283820160200185101561027557600080fd5b60005b8281101561029457602081860181015183830182015201610278565b506000918101602001919091529392505050565b80516001600160a01b03811681146102bf57600080fd5b919050565b6000806000806000806000806000806101408b8d0312156102e457600080fd5b8a516001600160401b038111156102fa57600080fd5b6103068d828e01610205565b60208d0151909b5090506001600160401b0381111561032457600080fd5b6103308d828e01610205565b60408d015160608e0151919b50995090506001600160401b0381111561035557600080fd5b6103618d828e01610205565b60808d015190985090506001600160401b0381111561037f57600080fd5b61038b8d828e01610205565b60a08d015160c08e0151919850965094506103aa905060e08c016102a8565b6101008c01519093506001600160401b038111156103c757600080fd5b6103d38d828e01610205565b9250506103e36101208c016102a8565b90509295989b9194979a5092959850565b600181811c9082168061040857607f821691505b60208210810361042857634e487b7160e01b600052602260045260246000fd5b50919050565b601f82111561047857806000526020600020601f840160051c810160208510156104555750805b601f840160051c820191505b818110156104755760008155600101610461565b50505b505050565b81516001600160401b03811115610496576104966101ef565b6104aa816104a484546103f4565b8461042e565b6020601f8211600181146104de57600083156104c65750848201515b600019600385901b1c1916600184901b178455610475565b600084815260208120601f198516915b8281101561050e57878501518255602094850194600190920191016104ee565b508482101561052c5786840151600019600387901b60f8161c191681555b50505050600190811b01905550565b6122bc8061054a6000396000f3fe6080604052600436106101815760003560e01c806370a08231116100d1578063b7fe93791161008a578063df30465e11610064578063df30465e14610462578063e2142fde14610483578063e985e9c5146104a3578063ff99a063146104c357600080fd5b8063b7fe9379146103f5578063b88d4fde14610422578063c87b56dd1461044257600080fd5b806370a08231146103415780638da5cb5b1461036f57806395d89b411461038f578063a22cb465146103a4578063a6f2ae3a146103c4578063b1b410f5146103cc57600080fd5b806323b872dd1161013e578063543cb81f11610118578063543cb81f146102bf57806355f804b3146102df5780636352211e146102ff5780636d00fa681461031f57600080fd5b806323b872dd1461026a5780633ccfd60b1461028a57806342842e0e1461029f57600080fd5b806301fec6e01461018657806301ffc9a71461019b57806306fdde03146101d0578063081812fc146101f2578063095ea7b31461022a57806322687ad21461024a575b600080fd5b610199610194366004611b21565b61050a565b005b3480156101a757600080fd5b506101bb6101b6366004611b53565b6107ba565b60405190151581526020015b60405180910390f35b3480156101dc57600080fd5b506101e561080c565b6040516101c79190611bc0565b3480156101fe57600080fd5b5061021261020d366004611bd3565b61089e565b6040516001600160a01b0390911681526020016101c7565b34801561023657600080fd5b50610199610245366004611c08565b6108c7565b34801561025657600080fd5b50601254610212906001600160a01b031681565b34801561027657600080fd5b50610199610285366004611c32565b6108d2565b34801561029657600080fd5b5061019961095d565b3480156102ab57600080fd5b506101996102ba366004611c32565b610a36565b3480156102cb57600080fd5b506101bb6102da366004611bd3565b610a51565b3480156102eb57600080fd5b506101996102fa366004611cff565b610a7e565b34801561030b57600080fd5b5061021261031a366004611bd3565b610ae4565b34801561032b57600080fd5b50610334610aef565b6040516101c79190611d48565b34801561034d57600080fd5b5061036161035c366004611df5565b610dba565b6040519081526020016101c7565b34801561037b57600080fd5b50600e54610212906001600160a01b031681565b34801561039b57600080fd5b506101e5610e02565b3480156103b057600080fd5b506101996103bf366004611e10565b610e11565b610199610e1c565b3480156103d857600080fd5b506103e16110aa565b6040516101c7989796959493929190611e4c565b34801561040157600080fd5b50610361610410366004611bd3565b60116020526000908152604090205481565b34801561042e57600080fd5b5061019961043d366004611ec2565b6112fe565b34801561044e57600080fd5b506101e561045d366004611bd3565b611316565b34801561046e57600080fd5b506101bb61047d366004611cff565b51151590565b34801561048f57600080fd5b506101bb61049e366004611df5565b61137e565b3480156104af57600080fd5b506101bb6104be366004611f3e565b611391565b3480156104cf57600080fd5b506104e36104de366004611bd3565b6113bf565b604080516001600160a01b03909416845260208401929092521515908201526060016101c7565b600854421061055b5760405162461bcd60e51b8152602060048201526018602482015277115d995b9d081a185cc8185b1c9958591e481c185cdcd95960421b60448201526064015b60405180910390fd5b600b54600c54106105a25760405162461bcd60e51b8152602060048201526011602482015270115d995b9d081a5cc81cdbdb19081bdd5d607a1b6044820152606401610552565b6105ab3361137e565b156105f85760405162461bcd60e51b815260206004820152601c60248201527f4164647265737320616c7265616479206861732061207469636b6574000000006044820152606401610552565b6012546001600160a01b03161561066a5760125460405163257dc93360e21b81526001600160a01b03909116906395f724cc90610639908490600401611f71565b60006040518083038186803b15801561065157600080fd5b505afa158015610665573d6000803e3d6000fd5b505050505b600d54156106c057600d543410156106bb5760405162461bcd60e51b8152602060048201526014602482015273125b9cdd59999a58da595b9d081c185e5b595b9d60621b6044820152606401610552565b6106de565b34156106de5760405162461bcd60e51b815260040161055290612026565b60016006800160008282546106f3919061207e565b9091555050600f805490600061070883612091565b9091555050600f5461071a3382611437565b600c54600082815260116020908152604091829020839055815133815290810184905280820192909252517fcbea9c23945e351434f7ae5b1a435091cc278dd9dd0eba4c04203674014ca7d79181900360600190a1600d543411156107b657600d5433906108fc9061078c90346120aa565b6040518115909202916000818181858888f193505050501580156107b4573d6000803e3d6000fd5b505b5050565b60006001600160e01b031982166380ac58cd60e01b14806107eb57506001600160e01b03198216635b5e139f60e01b145b8061080657506301ffc9a760e01b6001600160e01b03198316145b92915050565b60606000805461081b906120bd565b80601f0160208091040260200160405190810160405280929190818152602001828054610847906120bd565b80156108945780601f1061086957610100808354040283529160200191610894565b820191906000526020600020905b81548152906001019060200180831161087757829003601f168201915b5050505050905090565b60006108a982611451565b506000828152600460205260409020546001600160a01b0316610806565b6107b682823361148a565b6001600160a01b0382166108fc57604051633250574960e11b815260006004820152602401610552565b6000610909838333611497565b9050836001600160a01b0316816001600160a01b031614610957576040516364283d7b60e01b81526001600160a01b0380861660048301526024820184905282166044820152606401610552565b50505050565b600e546001600160a01b031633146109b75760405162461bcd60e51b815260206004820152601760248201527f4f6e6c79206f776e65722063616e2077697468647261770000000000000000006044820152606401610552565b47806109fc5760405162461bcd60e51b81526020600482015260146024820152734e6f2066756e647320746f20776974686472617760601b6044820152606401610552565b600e546040516001600160a01b039091169082156108fc029083906000818181858888f193505050501580156107b6573d6000803e3d6000fd5b6107b4838383604051806020016040528060008152506112fe565b6000600f54821115610a6557506000919050565b6008544210610a7657506000919050565b506001919050565b600e546001600160a01b03163314610ad85760405162461bcd60e51b815260206004820152601b60248201527f4f6e6c79206f776e65722063616e2073657420626173652055524900000000006044820152606401610552565b60106107b6828261213e565b600061080682611451565b610b3760405180610100016040528060608152602001606081526020016000815260200160608152602001606081526020016000815260200160008152602001600081525090565b600660405180610100016040529081600082018054610b55906120bd565b80601f0160208091040260200160405190810160405280929190818152602001828054610b81906120bd565b8015610bce5780601f10610ba357610100808354040283529160200191610bce565b820191906000526020600020905b815481529060010190602001808311610bb157829003601f168201915b50505050508152602001600182018054610be7906120bd565b80601f0160208091040260200160405190810160405280929190818152602001828054610c13906120bd565b8015610c605780601f10610c3557610100808354040283529160200191610c60565b820191906000526020600020905b815481529060010190602001808311610c4357829003601f168201915b5050505050815260200160028201548152602001600382018054610c83906120bd565b80601f0160208091040260200160405190810160405280929190818152602001828054610caf906120bd565b8015610cfc5780601f10610cd157610100808354040283529160200191610cfc565b820191906000526020600020905b815481529060010190602001808311610cdf57829003601f168201915b50505050508152602001600482018054610d15906120bd565b80601f0160208091040260200160405190810160405280929190818152602001828054610d41906120bd565b8015610d8e5780601f10610d6357610100808354040283529160200191610d8e565b820191906000526020600020905b815481529060010190602001808311610d7157829003601f168201915b505050505081526020016005820154815260200160068201548152602001600782015481525050905090565b60006001600160a01b038216610de6576040516322718ad960e21b815260006004820152602401610552565b506001600160a01b031660009081526003602052604090205490565b60606001805461081b906120bd565b6107b6338383611590565b6008544210610e685760405162461bcd60e51b8152602060048201526018602482015277115d995b9d081a185cc8185b1c9958591e481c185cdcd95960421b6044820152606401610552565b600b54600c5410610eaf5760405162461bcd60e51b8152602060048201526011602482015270115d995b9d081a5cc81cdbdb19081bdd5d607a1b6044820152606401610552565b610eb83361137e565b15610f055760405162461bcd60e51b815260206004820152601c60248201527f4164647265737320616c7265616479206861732061207469636b6574000000006044820152606401610552565b6012546001600160a01b0316610f5d5760405162461bcd60e51b815260206004820152601f60248201527f596f75206e65656420746f2070726f7669646520656d61696c2070726f6f66006044820152606401610552565b600d5415610fb357600d54341015610fae5760405162461bcd60e51b8152602060048201526014602482015273125b9cdd59999a58da595b9d081c185e5b595b9d60621b6044820152606401610552565b610fd1565b3415610fd15760405162461bcd60e51b815260040161055290612026565b6001600680016000828254610fe6919061207e565b9091555050600f8054906000610ffb83612091565b9091555050600f5461100d3382611437565b600c54600082815260116020908152604091829020839055815133815290810184905280820192909252517fcbea9c23945e351434f7ae5b1a435091cc278dd9dd0eba4c04203674014ca7d79181900360600190a1600d543411156110a757600d5433906108fc9061107f90346120aa565b6040518115909202916000818181858888f193505050501580156107b6573d6000803e3d6000fd5b50565b6006805481906110b9906120bd565b80601f01602080910402602001604051908101604052809291908181526020018280546110e5906120bd565b80156111325780601f1061110757610100808354040283529160200191611132565b820191906000526020600020905b81548152906001019060200180831161111557829003601f168201915b505050505090806001018054611147906120bd565b80601f0160208091040260200160405190810160405280929190818152602001828054611173906120bd565b80156111c05780601f10611195576101008083540402835291602001916111c0565b820191906000526020600020905b8154815290600101906020018083116111a357829003601f168201915b5050505050908060020154908060030180546111db906120bd565b80601f0160208091040260200160405190810160405280929190818152602001828054611207906120bd565b80156112545780601f1061122957610100808354040283529160200191611254565b820191906000526020600020905b81548152906001019060200180831161123757829003601f168201915b505050505090806004018054611269906120bd565b80601f0160208091040260200160405190810160405280929190818152602001828054611295906120bd565b80156112e25780601f106112b7576101008083540402835291602001916112e2565b820191906000526020600020905b8154815290600101906020018083116112c557829003601f168201915b5050505050908060050154908060060154908060070154905088565b6113098484846108d2565b610957338585858561162f565b606061132182611451565b50600061132c61175a565b9050600081511161134c5760405180602001604052806000815250611377565b8061135684611769565b6040516020016113679291906121fd565b6040516020818303038152906040525b9392505050565b60008061138a83610dba565b1192915050565b6001600160a01b03918216600090815260056020908152604080832093909416825291909152205460ff1690565b6000806000600f5484111561140e5760405162461bcd60e51b8152602060048201526015602482015274151a58dad95d08191bd95cc81b9bdd08195e1a5cdd605a1b6044820152606401610552565b61141784610ae4565b600094855260116020526040909420546008549495909442109350915050565b6107b68282604051806020016040528060008152506117fc565b6000818152600260205260408120546001600160a01b03168061080657604051637e27328960e01b815260048101849052602401610552565b6107b48383836001611814565b6000828152600260205260408120546001600160a01b03908116908316156114c4576114c481848661191a565b6001600160a01b03811615611502576114e1600085600080611814565b6001600160a01b038116600090815260036020526040902080546000190190555b6001600160a01b03851615611531576001600160a01b0385166000908152600360205260409020805460010190555b60008481526002602052604080822080546001600160a01b0319166001600160a01b0389811691821790925591518793918516917fddf252ad1be2c89b69c2b068fc378daa952ba7f163c4a11628f55a4df523b3ef91a4949350505050565b6001600160a01b0382166115c257604051630b61174360e31b81526001600160a01b0383166004820152602401610552565b6001600160a01b03838116600081815260056020908152604080832094871680845294825291829020805460ff191686151590811790915591519182527f17307eab39ab6107e8899845ad3d59bd9653f200f220920489ca2b5937696c31910160405180910390a3505050565b6001600160a01b0383163b1561175357604051630a85bd0160e11b81526001600160a01b0384169063150b7a029061167190889088908790879060040161222c565b6020604051808303816000875af19250505080156116ac575060408051601f3d908101601f191682019092526116a991810190612269565b60015b611715573d8080156116da576040519150601f19603f3d011682016040523d82523d6000602084013e6116df565b606091505b50805160000361170d57604051633250574960e11b81526001600160a01b0385166004820152602401610552565b805181602001fd5b6001600160e01b03198116630a85bd0160e11b1461175157604051633250574960e11b81526001600160a01b0385166004820152602401610552565b505b5050505050565b60606010805461081b906120bd565b606060006117768361197e565b600101905060008167ffffffffffffffff81111561179657611796611c6f565b6040519080825280601f01601f1916602001820160405280156117c0576020820181803683370190505b5090508181016020015b600019016f181899199a1a9b1b9c1cb0b131b232b360811b600a86061a8153600a85049450846117ca57509392505050565b6118068383611a56565b6107b433600085858561162f565b808061182857506001600160a01b03821615155b156118ea57600061183884611451565b90506001600160a01b038316158015906118645750826001600160a01b0316816001600160a01b031614155b801561187757506118758184611391565b155b156118a05760405163a9fbf51f60e01b81526001600160a01b0384166004820152602401610552565b81156118e85783856001600160a01b0316826001600160a01b03167f8c5be1e5ebec7d5bd14f71427d1e84f3dd0314c0f7b2291e5b200ac8c7c3b92560405160405180910390a45b505b5050600090815260046020526040902080546001600160a01b0319166001600160a01b0392909216919091179055565b611925838383611abb565b6107b4576001600160a01b03831661195357604051637e27328960e01b815260048101829052602401610552565b60405163177e802f60e01b81526001600160a01b038316600482015260248101829052604401610552565b60008072184f03e93ff9f4daa797ed6e38ed64bf6a1f0160401b83106119bd5772184f03e93ff9f4daa797ed6e38ed64bf6a1f0160401b830492506040015b6d04ee2d6d415b85acef810000000083106119e9576d04ee2d6d415b85acef8100000000830492506020015b662386f26fc100008310611a0757662386f26fc10000830492506010015b6305f5e1008310611a1f576305f5e100830492506008015b6127108310611a3357612710830492506004015b60648310611a45576064830492506002015b600a83106108065760010192915050565b6001600160a01b038216611a8057604051633250574960e11b815260006004820152602401610552565b6000611a8e83836000611497565b90506001600160a01b038116156107b4576040516339e3563760e11b815260006004820152602401610552565b60006001600160a01b03831615801590611b195750826001600160a01b0316846001600160a01b03161480611af55750611af58484611391565b80611b1957506000828152600460205260409020546001600160a01b038481169116145b949350505050565b6000610200828403128015611b3557600080fd5b509092915050565b6001600160e01b0319811681146110a757600080fd5b600060208284031215611b6557600080fd5b813561137781611b3d565b60005b83811015611b8b578181015183820152602001611b73565b50506000910152565b60008151808452611bac816020860160208601611b70565b601f01601f19169290920160200192915050565b6020815260006113776020830184611b94565b600060208284031215611be557600080fd5b5035919050565b80356001600160a01b0381168114611c0357600080fd5b919050565b60008060408385031215611c1b57600080fd5b611c2483611bec565b946020939093013593505050565b600080600060608486031215611c4757600080fd5b611c5084611bec565b9250611c5e60208501611bec565b929592945050506040919091013590565b634e487b7160e01b600052604160045260246000fd5b60008067ffffffffffffffff841115611ca057611ca0611c6f565b50604051601f19601f85018116603f0116810181811067ffffffffffffffff82111715611ccf57611ccf611c6f565b604052838152905080828401851015611ce757600080fd5b83836020830137600060208583010152509392505050565b600060208284031215611d1157600080fd5b813567ffffffffffffffff811115611d2857600080fd5b8201601f81018413611d3957600080fd5b611b1984823560208401611c85565b60208152600082516101006020840152611d66610120840182611b94565b90506020840151601f19848303016040850152611d838282611b94565b915050604084015160608401526060840151601f19848303016080850152611dab8282611b94565b9150506080840151601f198483030160a0850152611dc98282611b94565b91505060a084015160c084015260c084015160e084015260e08401516101008401528091505092915050565b600060208284031215611e0757600080fd5b61137782611bec565b60008060408385031215611e2357600080fd5b611e2c83611bec565b915060208301358015158114611e4157600080fd5b809150509250929050565b61010081526000611e6161010083018b611b94565b8281036020840152611e73818b611b94565b90508860408401528281036060840152611e8d8189611b94565b90508281036080840152611ea18188611b94565b60a0840196909652505060c081019290925260e09091015295945050505050565b60008060008060808587031215611ed857600080fd5b611ee185611bec565b9350611eef60208601611bec565b925060408501359150606085013567ffffffffffffffff811115611f1257600080fd5b8501601f81018713611f2357600080fd5b611f3287823560208401611c85565b91505092959194509250565b60008060408385031215611f5157600080fd5b611f5a83611bec565b9150611f6860208401611bec565b90509250929050565b61020081018235611f8181611b3d565b6001600160e01b031916825261010060208481019084013761012083013560028110158015611faf57600080fd5b50610120830152610140838101359083015261016080840135908301526101808083019060009085016001600160a01b03611fe982611bec565b1683526020810135611ffa81611b3d565b6001600160e01b0319166020840152604081810135908401526060908101359201919091525092915050565b60208082526022908201527f4576656e7420697320667265652c206e6f207061796d656e7420726571756972604082015261195960f21b606082015260800190565b634e487b7160e01b600052601160045260246000fd5b8082018082111561080657610806612068565b6000600182016120a3576120a3612068565b5060010190565b8181038181111561080657610806612068565b600181811c908216806120d157607f821691505b6020821081036120f157634e487b7160e01b600052602260045260246000fd5b50919050565b601f8211156107b457806000526020600020601f840160051c8101602085101561211e5750805b601f840160051c820191505b81811015611753576000815560010161212a565b815167ffffffffffffffff81111561215857612158611c6f565b61216c8161216684546120bd565b846120f7565b6020601f8211600181146121a057600083156121885750848201515b600019600385901b1c1916600184901b178455611753565b600084815260208120601f198516915b828110156121d057878501518255602094850194600190920191016121b0565b50848210156121ee5786840151600019600387901b60f8161c191681555b50505050600190811b01905550565b6000835161220f818460208801611b70565b835190830190612223818360208801611b70565b01949350505050565b6001600160a01b038581168252841660208201526040810183905260806060820181905260009061225f90830184611b94565b9695505050505050565b60006020828403121561227b57600080fd5b815161137781611b3d56fea264697066735822122053edacc14c688a8d01102d6df124fd63ff530795dfa6e68c6434c3e8f9705b7964736f6c634300081b0033",
        "linkReferences": {}
    },
    "methodIdentifiers": {
        "approve(address,uint256)": "095ea7b3",
        "balanceOf(address)": "70a08231",
        "buy()": "a6f2ae3a",
        "buyWithProof(((bytes4,bytes32[8],uint8),bytes32,uint256,(address,bytes4,uint256,bytes32)))": "01fec6e0",
        "emailVerifier()": "22687ad2",
        "eventInfo()": "b1b410f5",
        "getApproved(uint256)": "081812fc",
        "getEventInfo()": "6d00fa68",
        "getTicketInfo(uint256)": "ff99a063",
        "hasTicket(address)": "e2142fde",
        "isApprovedForAll(address,address)": "e985e9c5",
        "isNonEmptyString(string)": "df30465e",
        "name()": "06fdde03",
        "owner()": "8da5cb5b",
        "ownerOf(uint256)": "6352211e",
        "safeTransferFrom(address,address,uint256)": "42842e0e",
        "safeTransferFrom(address,address,uint256,bytes)": "b88d4fde",
        "setApprovalForAll(address,bool)": "a22cb465",
        "setBaseURI(string)": "55f804b3",
        "supportsInterface(bytes4)": "01ffc9a7",
        "symbol()": "95d89b41",
        "ticketNumbers(uint256)": "b7fe9379",
        "tokenURI(uint256)": "c87b56dd",
        "transferFrom(address,address,uint256)": "23b872dd",
        "verifyTicket(uint256)": "543cb81f",
        "withdraw()": "3ccfd60b"
    },
    "id": 18
}